:0300000002034BAD
:0C034B00787FE4F6D8FD7581070203926C
:10000300C2AF901000E493FFD39427748094804090
:0500130002E4FFD2AF82
:0100180022C5
:10060E00C2AF75FF8075EF0275B7A575B7F1758F1F
:10061E0003901000EFF0E4F58F75B7A575B7F1757F
:0A062E008F01EFF0E4F58FD2AF2248
:1001FB00E47885F208F208F21205DC7F96120460AF
:10020B001200037800EFF2120128439810D2907875
:10021B0001E260107800E2FF12060EE2FF120128E5
:10022B00E47801F27800E2FF131313541F7886F27F
:10023B00EF540708F27F021206387886E2640460F6
:10024B0033E418F27886E22401FFE433FE18E2C3AC
:10025B009FEE6480F8748098501A7801E27015C292
:10026B00907F01120638D2907F2C1204607885E2C1
:10027B0004F280D0E47885F27887E22401FFE4333E
:10028B00FE7885E2C39FEE6480F874809850807886
:10029B0001E2600302021AC2907F2C120460D2901A
:0C02AB007F2C1204607885E204F280CC05
:1005DC00AFA7E4F5A77597DE7597AD75A40A75A559
:1005EC001C75D50C75E34075E101758EF5758DB0F4
:1005FC0075892075884075A810C292C294D2938FC9
:01060C00A746
:01060D0022CA
:1002B7008A030000000000000000000081020081A6
:0502C7000000810100B0
:03002300020026B2
:10002600C0E0C0F0C083C082C0D075D000C000C0A0
:0D00360001C002C003C004C005C006C00721
:1000430020980302010DAF997802E2FD7C00640160
:10005300700AEF64556005E4F202010DED64034C90
:100063007011EFD394057480948040077802E4F212
:1000730002010D7802E27005EF64AA601A7802E2C9
:10008300FD7C0064017005EF6455600BD3ED9401B2
:10009300EC64809480400D7802E22403F8EFF27858
:1000A30002E204F27802E2FF7E00D39403748094A8
:1000B3008040497806E22405FDE433FCED6F7001CE
:1000C300EC70397802F27805E26407702F7BFE7AD0
:1000D3000079037D051204C27808E2B5071E18E211
:1000E300FFC394287480948050127800E2FEEF6E70
:1000F300600A7807E27800F2087401F27802E2D32A
:0A0103009409748094804002E4F235
:10010D00D007D006D005D004D003D002D001D00046
:0B011D00D0D0D082D083D0F0D0E032F0
:040460007888EFF2B7
:10046400E408F27888E2FF08E2C39F50507801E282
:10047400704B788A120447000000B9E4FFFEFDFCCB
:10048400788AE2FB08E2F908E2FA08E2CBF8D31230
:1004940004044022788AE2FC08E2FD08E2FE08E255
:1004A40024FFFFEE34FFFEED34FFFDEC34FFFC7857
:0D04B4008A12043B80C57889E204F280A61C
:0104C1002218
:0F0638007801E27009EF75F0E8A4FF1204602268
:040580007896EFF288
:10058400E408F27896E2FF08E2C39F504A08120496
:1005940047000000B9E4FFFEFDFC7898E2FB08E2A6
:1005A400F908E2FA08E2CBF8D3120404402278985E
:1005B400E2FC08E2FD08E2FE08E224FFFFEE34FF5D
:1005C400FEED34FFFDEC34FFFC789812043B80C54B
:0705D4007897E204F280AC0D
:0105DB0022FD
:1002CC00A0280D303C0814202C38040C27021D38B3
:1002DC00132E09101C283424180C003B2F23170B49
:1002EC003F3327391633102D0A2704A0503508F553
:1002FC0008ED08E608DE08D608CE08C608BF08C216
:10030C0008C908D108D808DF08E708EE08F608B7CE
:10031C0008AF08A7089F08FD0905090D091508C4B1
:10032C0008CC08D408DC08E408EB08F308FB08A4A4
:0E033C0008B308C108D008DE08ED08FB090A66
:0D04C200789CEBF208EAF208E9F208EDF28E
:1004CF00E408F2FF789FE2FDEFC39D5040789CE275
:1004DF00FB08E2FA08E2F98F827583001203D7FE58
:1004EF0078A0E26EF2E4FEEEC3940874809480501C
:1004FF001978A0E2FD54806008ED25E064D5F28004
:10050F000678A0E225E0F20E80DD0F80B778A0E23A
:01051F00FFDC
:0105200022B8
:05052100789112043B7B
:10052600E47895F2C2937F01120580E47895F2781B
:1005360095E2F9C394197480948050347891E2FC62
:1005460008E2FD08E2FE08E2FFA801120415EF54D6
:1005560001FFE4FEFDFCEF24FF9292D2947F01128C
:100566000580C2947F011205807895E204F280BF6F
:09057600C2927F01120580D293AC
:01057F002259
:10012800740D2FF8E27888F2EF25E02435F8E2FE26
:1001380008E2FFE4FCFD788912043B788D1204473D
:1001480000000010788DE2FC08E2FD08E2FE08E2FB
:100158004480FFEE4432FEEC788D12043B788DE249
:10016800FC08E2FD08E2FE08E2FF1205217F011209
:100178000580788D12044700000011788DE2FB0895
:10018800E2F908E2FA08E2CBF8C0007888E275F0F4
:1001980020A4FFAEF0EE3395E0FDFCD000EB4FFF5E
:1001A800EA4EFEE94DFDE84CFC788D12043B788D53
:1001B800E2FB08E2F908E2FA08E2CBF8C000788925
:1001C800E2FC08E2FD08E2FE08E2FF780C120428CF
:1001D800D000EB4FFFEA4EFEE94DFDE84CFC788D70
:1001E80012043B788DE2FC08E2FD08E2FE08E2FF1B
:0301F800020521DC
:100357000201FBE493A3F8E493A34003F68001F2C0
:1003670008DFF48029E493A3F85407240CC8C333A7
:10037700C4540F4420C8834004F456800146F6DF76
:10038700E4800B01020408102040809002B7E47E4D
:10039700019360BCA3FF543F30E509541FFEE4936B
:1003A700A360010ECF54C025E060A840B8E493A332
:1003B700FAE493A3F8E493A3C8C582C8CAC583CA5D
:1003C700F0A3C8C582C8CAC583CADFE9DEE780BE15
:01034A0000B2
:1003D700BB010CE58229F582E5833AF583E02250DB
:1003E70006E92582F8E622BBFE06E92582F8E22225
:0D03F700E58229F582E5833AF583E493223F
:10040400EB9FF5F0EA9E42F0E99D42F0E89C45F04E
:0104140022C5
:10041500E8600FECC313FCED13FDEE13FEEF13FFC5
:03042500D8F122E9
:10042800E8600FEFC333FFEE33FEED33FDEC33FC32
:03043800D8F122D6
:0C043B00ECF208EDF208EEF208EFF222FD
:10044700D083D082E493F208740193F20874029384
:09045700F208740393F2740473BB
:00000001FF
