:03000000022E4A83
:0C2E4A00787FE4F6D8FD758107022E9118
:102BBF008257000082550000811D008154098362F5
:102BCF00000000815F0081260181080081120081D1
:102BDF0015008116008119008946000000000000D1
:102BEF00000000893A000000000000000000892F5B
:102BFF0000000000000000000083050000008309B2
:102C0F00000000830C000000830F000000842B00E5
:102C1F00000000811C00815E00814F00815B0081FC
:102C2F004500810400816000821A00008243000089
:102C3F00841E0000000084500000000081610082AB
:102C4F00170082822900A0825C00E6821300F082C6
:102C5F005900B482380000820200008227000082EF
:072C6F000000008224181090
:0A307800787DEBF208EAF208E9F2B5
:10308200E4FFFEEEC3940B748094805017787DE2C7
:10309200FB08E2FA08E2F98E82758300122ED62F1F
:0430A200FF0E80DFBE
:0130A6002207
:102889007871E27808F27872E2FE08E27C002400AE
:10289900781BF2EC3E18F2E2FA08E2FB7C037DE8D1
:1028A900FFAE02122F03EF7803C333CE33CED8F92C
:1028B900781EF27C037DE8AF03AE02122F03AA044F
:1028C900AB057D647C00AF03AE02122F03EF7803E2
:1028D900C333CE33CED8F9781FF27D647C00AF03C1
:1028E900AE02122F03AA04AB057D0A7C00AF03AE2A
:1028F90002122F03EF7803C333CE33CED8F97820F1
:10290900F27D0A7C00AF03AE02122F03AE04ED780C
:1029190003C333CE33CED8F97821F27874E2FE08B6
:10292900E27C0024007844F2EC3E18F2E2FA08E274
:10293900FB7C037DE8FFAE02122F03EF7803C3335C
:10294900CE33CED8F97850F27C037DE8AF03AE02DE
:10295900122F03AA04AB057D647C00AF03AE0212FB
:102969002F03EF7803C333CE33CED8F97851F27DF4
:10297900647C00AF03AE02122F03AA04AB057D0AE3
:102989007C00AF03AE02122F03EF7803C333CE33BB
:10299900CED8F97852F27D0A7C00AF03AE02122F2D
:1029A90003AE04ED7803C333CE33CED8F97853F2AE
:0729B9007876E27861F2225A
:102CA5007871E27808F27872E2FD75F00AA4FF788F
:102CB50029E5F0F208EFF27873E2FC75F00AA4FF5B
:102CC500785CE5F0F208EFF27874E2F975F00AA4A1
:102CD500FF7813E5F0F208EFF27876E275F00AA4D2
:102CE500FF7859E5F0F208EFF2ED75F00A84333319
:102CF5003354F87838F27872E275F00A84AFF0EF61
:102D050033333354F87839F2EC75F00A84333333BE
:102D150054F87802F27873E275F00A84AFF0EF3375
:102D2500333354F87803F2E975F00A8433333354B6
:102D3500F87827F2E975F00A84AFF0EF33333354AE
:102D4500F808F27876E2FF75F00A8433333354F8E5
:102D55007800F2EF75F00A84AFF0EF33333354F8AF
:102D650008F27877E2FF75F00A8433333354F87844
:102D750024F2EF75F00A84AFF0EF33333354F808DB
:022D8500F22238
:102D87007871E2781DF27873E2FE08E27C00240095
:102D97007823F2EC3E18F2E2FA08E2FB7D64FFAE1C
:102DA70002122F03EF7803C333CE33CED8F97862FC
:102DB700F27C007D64AF03AE02122F03AA04AB05B9
:102DC7007D0A7C00AF03AE02122F03EF7803C333F3
:102DD700CE33CED8F97863F27D0A7C00AF03AE021A
:102DE700122F03AE04ED7803C333CE33CED8F97870
:102DF70064F27875E27826F27876E2FF5401782C4F
:102E0700F2EFC313540108F27876E21313540178F2
:102E17002EF2782CE2602208E2600E08E2785F600A
:102E2700047402F2227403F222782EE26006785FBD
:102E37007404F222E4785FF222782DE27004785F5E
:032E470004F22270
:100006007871E27808F27872E233333354F8780480
:0D001600F27873E233333354F87860F2224D
:102523007871E27808F27872E2FF75F064843333ED
:102533003354F87846F2EF75F06484AFF0EF75F03A
:102543000A8433333354F808F2EF75F00A84AFF09A
:10255300EF33333354F808F27873E2FF75F0648491
:1025630033333354F87849F2EF75F06484AFF0EF06
:1025730075F00A8433333354F808F2EF75F00A84A4
:10258300AFF0EF33333354F808F27874E2FF75F0A9
:10259300648433333354F8784CF2EF75F06484AFCA
:1025A300F0EF75F00A8433333354F808F2EF75F023
:1025B3000A84AFF0EF33333354F808F27875E2FF4F
:1025C30075F0648433333354F8783AF2EF75F0647A
:1025D30084AFF0EF75F00A8433333354F808F2EF25
:1025E30075F00A84AFF0EF33333354F808F278769A
:1025F300E2FF75F0648433333354F8783DF2EF75BA
:10260300F06484AFF0EF75F00A8433333354F80881
:10261300F2EF75F00A84AFF0EF33333354F808F276
:102623007877E2FF75F0648433333354F87840F2FB
:10263300EF75F06484AFF0EF75F00A8433333354ED
:10264300F808F2EF75F00A84AFF0EF33333354F840
:1026530008F27878E2FF75F0648433333354F87802
:102663002FF2EF75F06484AFF0EF75F00A84333323
:102673003354F808F2EF75F00A84AFF0EF333333D5
:1026830054F808F27879E2FF75F0648433333354F5
:10269300F87832F2EF75F06484AFF0EF75F00A84E6
:1026A30033333354F808F2EF75F00A84AFF0EF33A5
:1026B300333354F808F2787AE275F06484333333B1
:1026C30054F87835F2787AE275F06484E5F075F0C1
:1026D3000A8433333354F87836F2787AE275F06447
:1026E30084E5F075F00A84AFF0EF33333354F878B0
:0326F30037F22299
:1030D3007871E27808F27872E27812F27873E23368
:1030E300333354F87815F27874E27816F27875E28F
:0430F3007819F22234
:102AD0007871E27808F27872E2FF75F0648433333B
:102AE0003354F87805F2EF75F06484AFF0EF75F0C9
:102AF0000A8433333354F808F2EF75F00A84AFF0E8
:102B0000EF33333354F808F27873E2FF75F06484DE
:102B100033333354F87809F2EF75F06484AFF0EF93
:102B200075F00A8433333354F808F2EF75F00A84F1
:102B3000AFF0EF33333354F808F27874E2FF75F0F6
:102B4000648433333354F8780CF2EF75F06484AF57
:102B5000F0EF75F00A8433333354F808F2EF75F070
:102B60000A84AFF0EF33333354F808F27875E2FF9C
:102B700075F0648433333354F8780FF2EF75F064F2
:102B800084AFF0EF75F00A8433333354F808F2EF72
:102B900075F00A84AFF0EF33333354F808F27876E7
:102BA000E25401782BF27877E25401782CF27878AD
:0F2BB000E25401782DF27879E25401782EF22266
:10311B007871E27808F27872E2784FF27873E2789D
:0F312B005EF27875E27845F27876E2785BF22210
:10313A00E4FEEEC39F50107D207CA1ED1D70011CA2
:07314A00ED4C70F70E80EB65
:01315100225B
:102F58001230A7D2AF7FFA12313A75A2017BFE7AFE
:102F6800007970123078787BE2B507F17870E2FF6B
:102F7800C4540F7854F2B4080050E2902F8AF8280D
:102F88002873022FA2022FA7022FAC022FB1022F03
:102F9800B6022FBB022FC0022FC5122D8780BE128A
:102FA800000680B912252380B41230D380AF122ACC
:102FB800D080AA12311B80A5122CA580A0122889C6
:022FC800809BEC
:1030A700787DE5A7F21231A012316E123178123114
:1030B700B212318212315212316312318C1231AE97
:0B30C7001231961231A7787DE2F5A7C8
:0130D20022DB
:0731A0007597DE7597AD2263
:0A316E00E4F5A775A45075D40F22F4
:0A31780075F27F75A50175D584225C
:0131B20022FA
:0A318200E4F5A775E34075E10322B0
:10315200E4F5A775C130F5A9F5A975A90775A90701
:01316200224A
:0A316300AF88758800758DB98F885C
:01316D00223F
:0A318C00758E0675892175885022A2
:0431AE004398102210
:0A31960075A20443A14043F80D2286
:0731A70075E40A75A811226E
:102C7600816700826800008166008165008C7000B3
:102C86000000000000000000000000816F00826A62
:0B2C96000000816C00816E00816D0069
:030003000226F6DC
:1026F600C0E0C0F0C083C082C0D075D000C000C0AA
:1027060001C002C003C004C005C006C0077867E266
:1027160060030227AEF58CF58A75E402781DE26443
:102726000170107854E2700B7869E22401F218E225
:102736003400F2C37869E2940118E2943F4061E400
:10274600F208F27865E204F2E2943C7480948040E8
:1027560011E4F208E204F2E2943C748094804002B0
:10276600E4F27866E2FF75F00A8433333354F8787E
:1027760057F2EF75F00A84AFF0EF33333354F808AD
:10278600F27865E2FF75F00A8433333354F87855EE
:10279600F2EF75F00A84AFF0EF33333354F808F2F2
:1027A60078677401F202286EAF8CEFFEAD8AEDD326
:1027B60094EAEE648094814006786AE4F208F2783E
:1027C60054E2B40800400302284F9027D7F828287F
:1027D600730227EF0227FB02280702281302281F8D
:1027E60002282B022837022843786AE2FE08E2FF15
:1027F6001215E8805E786AE2FE08E2FF120E5A8041
:1028060052786AE2FE08E2FF1209F78046786AE229
:10281600FE08E2FF121983803A786AE2FE08E2FFB8
:1028260012123A802E786AE2FE08E2FF12234480F2
:1028360022786AE2FE08E2FF121C478016786AE2F6
:10284600FE08E2FF121ED2800A786AE2FE08E2FF64
:102856001229C075A300786BE22401F218E2340055
:10286600F275E40A7867E4F2D007D006D005D00402
:10287600D003D002D001D000D0D0D082D083D0F007
:03288600D0E0326D
:03002300022FCADF
:102FCA00C0E0C0D075D000C000C004C005C006C0B3
:102FDA000730984AC298786CE599F2786FE2FFFD5B
:102FEA007C00700C786CE2FE540F640F7002801B38
:102FFA00D3ED9400EC64809480401B786FE2FF94D8
:10300A000C74809480500F786CE2FE74702FF8EE86
:10301A00F2786FE204F2786FE2640C7001F2D00782
:0D302A00D006D005D004D000D0D0D0E032C8
:10211C00003E40808080804038040202020204F8B5
:10212C00007C101010101010101010101010107CDB
:10213C000040404040404040404040404040407E95
:10214C0000828282828282828282828282442810EF
:10215C0000FE808080808080FE808080808080FE79
:10216C0000FE82828282828282FEC0A0908884825B
:10217C000010284482828282FE8282828282828243
:10218C000092929292929292929292929292AA44EB
:10219C00002020203E22223E009090503020408093
:1021AC000000000000000000001824427E42424261
:1021BC00007C42427E42427C001E20404040201E59
:1021CC000078444242424478007E40407E40407E4B
:1021DC00007E40407E404040007E82808682827C31
:1021EC00004242427E424242007C10101010107C91
:1021FC00007E02020242667C004448506050484413
:10220C00004040404040407C00C6AA9282828282BC
:10221C0000C2A2928A8A8682003C42424242423CDE
:10222C00007C42427C404040007E4242425A7E0644
:10223C00007C42427C484442003E40403C02027CCE
:10224C00007E101010101010004242424242423CDC
:10225C000082828282442810008292929292927C16
:10226C0000422214081422420042221408080808D2
:10227C00007E04081020407E00000000F08080F0FA
:10228C00000000001E02021E00FEFEFEFEFEFE000E
:10229C000000000084844830000000003048FC84BA
:1022AC00007E42424242427E001030501010107E9E
:1022BC00007E06067E40407E007E02023E02027ECA
:1022CC00004242427E020202007E40407E02027EBA
:1022DC00007E40407E42427E007E42040810202058
:1022EC00007E42427E42427E007E42427E020202DA
:1022FC0000000000FE000000000000000000383864
:10230C00008020080208208000001C1C001C1C00FF
:10231C0000101010FE101010001028448200000055
:10232C0000FE82828282FE0000828282442810009B
:08233C0000000000000000FE9B
:032CA100817C0033
:10002600EFB4280040030209F6900036F82828733A
:100036000200AE0200D50200FC02010D02013402EC
:10004600015702017E0201A40201CB020200020254
:10005600350202780202BB0202FA02033D02038065
:100066000203BF0204020204450204880204CB0212
:10007600050A02054D0205900205D3020616020680
:100086005902069C0206DF02071E0207610207A448
:100096000207E30208260208690208AC0208EF021A
:1000A600092E0209710209B3787CE2FF9021B4930C
:1000B600F5A3EF9022B493F5A3E2FF9021AC93F55C
:1000C600A3EF9022D493F5A3E29022EC0204697880
:1000D6007CE2FF9021B493F5A3EF9022BC93F5A3A5
:1000E600E2FF9021AC93F5A3EF9022D493F5A3E21F
:1000F6009022EC0204AC787CE2FF9021B493F5A345
:10010600EF9022C4020308787CE2FF9021B493F5B5
:10011600A3EF9022CC93F5A3E2FF9021AC93F5A335
:10012600EF9022D493F5A3E29022EC0203E3787CCD
:10013600E2FF9021B493F5A3EF9022D493FFF5A3A9
:10014600E2FE9021AC93F5A38FA3EE9022E4020485
:1001560026787CE2FF9021B493F5A3EF9022DC93FE
:10016600F5A3E2FF9021AC93F5A3EF9022D493F58B
:10017600A3E29022E4020469787CE2FF9021B49322
:10018600F5A3EF9022E493FFF5A3E2FE9021AC9352
:10019600F5A3EE9022D493F5A38FA30204AF787C47
:1001A600E2FF9021B493F5A3EF9022EC93F5A3E23E
:1001B600FF9021AC93F5A3EF9022D493F5A3E290A0
:1001C60022E402031E787CE2FF9021BC93F5A3EFA4
:1001D6009022B493F5A3E2FF9021AC93F5A3EF90A0
:1001E60022D493F5A3E29022E493F5A37F03123180
:1001F60010787CE29022C4020960787CE2FF9021AC
:10020600BC93F5A3EF9022BC93F5A3E2FF9021AC3B
:1002160093F5A3EF9022D493F5A3E29022E493F50D
:10022600A37F03123110787CE29022D402089B78D7
:100236007CE2FF9021BC93F5A3EF9022C493F5A333
:10024600E2FF9021AC93F5A3EF9022D493F5A3E2BD
:100256009022E493F5A37F03123110787CE290227A
:10026600E493F5A37F03123110787CE29022B40266
:1002760009F3787CE2FF9021BC93F5A3EF9022CCA2
:1002860093F5A3E2FF9021AC93F5A3EF9022D493CC
:10029600F5A3E29022E493F5A37F03123110787C54
:1002A600E29022F493F5A37F03123110787CE2905A
:1002B60022AC0209F3787CE2FF9021BC93F5A3EF10
:1002C6009022D493FFF5A3E2FE9021AC93F5A38F81
:1002D600A3EE9022EC93F5A37F03123110787CE213
:1002E6009022AC93F5A37F03123110787CE2902222
:1002F600F40209F3787CE2FF9021BC93F5A3EF901A
:1003060022DC93F5A3E2FF9021AC93F5A3EF9022B4
:10031600D493F5A3E29022EC93F5A37F0312311058
:10032600787CE29022BC93F5A37F03123110787C8F
:10033600E29022D40209F3787CE2FF9021BC93F587
:10034600A3EF9022E493F5A3E2FF9021AC93F5A3EB
:10035600EF9022D493F5A3E29022EC93F5A37F03CA
:10036600123110787CE29022CC93F5A37F031231F0
:1003760010787CE29022E40209F3787CE2FF902177
:10038600BC93F5A3EF9022EC93FFF5A3E2FE902138
:10039600AC93F5A3EE9022D493F5A38FA37F03121B
:1003A6003110787CE29022DC93F5A37F03123110A2
:1003B600787CE29022DC0209F3787CE2FF9021C48B
:1003C60093F5A3EF9022B493F5A3E2FF9021AC93AB
:1003D600F5A3EF9022D493F5A3E29022E493F5A33C
:1003E6007F03123110787CE29022AC93F5A37F0351
:1003F600123110787CE29022D40209F3787CE2FF75
:100406009021C493F5A3EF9022BC93F5A3E2FF904D
:1004160021AC93F5A3EF9022D493F5A3E29022DCCE
:1004260093F5A37F03123110787CE29022EC93F5CA
:10043600A37F03123110787CE29022D40209F3786C
:100446007CE2FF9021C493F5A3EF9022C493F5A319
:10045600E2FF9021AC93F5A3EF9022D493F5A3E2AB
:100466009022DC93F5A37F03123110787CE2902270
:10047600DC93F5A37F03123110787CE29022D4023C
:1004860009F3787CE2FF9021C493F5A3EF9022CC88
:1004960093F5A3E2FF9021AC93F5A3EF9022D493BA
:1004A600F5A3E29022DC93F5A37F03123110787C4A
:1004B600E29022CC93F5A37F03123110787CE29070
:1004C60022D40209F3787CE2FF9021C493F5A3EFCE
:1004D6009022D493FFF5A3E2FE9021AC93F5A38F6F
:1004E600A3EE9022EC93F5A37F03123110787CE201
:1004F6009022EC93F5A37F03123110787CE29022D0
:10050600D40209F3787CE2FF9021C493F5A3EF901F
:1005160022DC93F5A3E2FF9021AC93F5A3EF9022A2
:10052600D493F5A3E29022F493F5A37F031231103E
:10053600787CE29022AC93F5A37F03123110787C8D
:10054600E29022D40209F3787CE2FF9021C493F56D
:10055600A3EF9022E493F5A3E2FF9021AC93F5A3D9
:10056600EF9022D493F5A3E29022F493F5A37F03B0
:10057600123110787CE29022BC93F5A37F031231EE
:1005860010787CE29022D40209F3787CE2FF902175
:10059600C493F5A3EF9022EC93F5A3E2FF9021AC70
:1005A60093F5A3EF9022D493F5A3E29022F493F56A
:1005B600A37F03123110787CE29022CC93F5A37FBF
:1005C60003123110787CE29022D40209F3787CE29F
:1005D600FF9021CC93F5A3EF9022B493F5A3E2FF0D
:1005E6009021AC93F5A3EF9022D493F5A3E2902249
:1005F600E493F5A37F03123110787CE29022CC932A
:10060600F5A37F03123110787CE29022AC0209F345
:10061600787CE2FF9021CC93F5A3EF9022BC93F572
:10062600A3E2FF9021AC93F5A3EF9022D493F5A318
:10063600E29022E493F5A37F03123110787CE290D6
:1006460022DC93F5A37F03123110787CE29022AC72
:100656000209F3787CE2FF9021CC93F5A3EF902278
:10066600C493F5A3E2FF9021AC93F5A3EF9022D4B7
:1006760093F5A3E29022E493F5A37F031231107859
:100686007CE29022EC93F5A37F03123110787CE292
:100696009022AC0209F3787CE2FF9021CC93F5A37B
:1006A600EF9022CC93F5A3E2FF9021AC93F5A3EF54
:1006B6009022D493F5A3E29022EC93F5A37F031244
:1006C6003110787CE29022AC93F5A37F03123110AF
:1006D600787CE29022AC0209F3787CE2FF9021CC90
:1006E60093F5A3EF9022D493FFF5A3E2FE9021ACFD
:1006F60093F5A38FA3EE9022EC93F5A37F0312311B
:1007060010787CE29022BC93F5A37F031231107817
:100716007CE29022AC0209F3787CE2FF9021CC9334
:10072600F5A3EF9022DC93F5A3E2FF9021AC93F5BD
:10073600A3EF9022D493F5A3E29022EC93F5A37F46
:1007460003123110787CE29022CC93F5A37F03123A
:100756003110787CE29022AC0209F3787CE2FF90BB
:1007660021CC93F5A3EF9022E493F5A3E2FF902129
:10077600AC93F5A3EF9022D493F5A3E29022EC93E9
:10078600F5A37F03123110787CE29022DC93F5A367
:100796007F03123110787CE29022AC0209F3787C58
:1007A600E2FF9021CC93F5A3EF9022EC93FFF5A303
:1007B600E2FE9021AC93F5A3EE9022D493F5A38F9D
:1007C600A37F03123110787CE29022EC93F5A37F8D
:1007D60003123110787CE29022AC0209F3787CE2B5
:1007E600FF90223C93F5A3EF9022B493F5A3E2FF8A
:1007F6009021AC93F5A3EF9022D493F5A3E2902237
:10080600DC93F5A37F03123110787CE29022D49317
:10081600F5A37F03123110787CE29022DC0209F303
:10082600787CE2FF90223C93F5A3EF9022BC93F5EF
:10083600A3E2FF9021AC93F5A3EF9022D493F5A306
:10084600E29022DC93F5A37F03123110787CE290CC
:1008560022F493F5A37F03123110787CE29022D420
:100866000209F3787CE2FF90223C93F5A3EF9022F5
:10087600C493F5A3E2FF9021AC93F5A3EF9022D4A5
:1008860093F5A3E29022E493F5A37F031231107847
:100896007CE29022C493F5A37F03123110787CE2A8
:1008A6009022BC0209F3787CE2FF90223C93F5A3E8
:1008B600EF9022CC93F5A3E2FF9021AC93F5A3EF42
:1008C6009022D493F5A3E29022E493F5A37F03123A
:1008D6003110787CE29022DC93F5A37F031231106D
:1008E600787CE29022F40209F3787CE2FF90223CC5
:1008F60093F5A3EF9022D493FFF5A3E2FE9021ACEB
:1009060093F5A38FA3EE9022EC93F5A37F03123108
:1009160010787CE29022AC93F5A37F031231107815
:100926007CE29022DC0209F3787CE2FF90223C9381
:10093600F5A3EF9022DC93F5A3E2FF9021AC93F5AB
:10094600A3EF9022D493F5A3E29022EC93F5A37F34
:1009560003123110787CE29022CC93F5A37F031228
:100966003110787CE29022C40209F3787CE2FF9091
:10097600223C93F5A3EF9022E493F5A3E2FF9021A6
:10098600AC93F5A3EF9022D493F5A3E29022EC93D7
:10099600F5A37F03123110787CE29022EC93F5A345
:1009A6007F03123110787CE29022AC8040787CE2A2
:1009B600FF90223C93F5A3EF9022EC93F5A3E2FF80
:1009C6009021AC93F5A3EF9022D493F5A3E2902265
:1009D600F493F5A37F03123110787CE29022B4934E
:1009E600F5A37F03123110787CE29022E493F5A3FD
:0109F60022DE
:10303700EF146014047039787CE2FF9022BC93F59A
:10304700A3EF9022D4938011787CE2FF9022BC9367
:10305700F5A3EF9022AC93F5A3F5A3E29022149386
:10306700F5A37F03123110787CE290226493F5A3D5
:013077002236
:1030F700FFE22F9022AC93F5A37F011231109023AA
:0931070004787CE293F5A37F013A
:0A311000E4FEEEC39F50030E80F8AA
:01311A002292
:1029C000AD07AC06C374789DE49C5075C3ED948943
:1029D000EC9400506CEF2488787CF27F2D1231103B
:1029E000E2FF90211C93F5A3EF90212C93F5A3E235
:1029F000FF90213C93F5A3EF90214C93F5A3E29037
:102A0000215C93F5A37F06123110E290216C93F5BF
:102A1000A37F09123110E290218C93F5A37F0A1253
:102A20003110E290217C93F5A37F09123110E290DE
:102A3000216C93F5A37F0A123110E290215C93F58B
:102A4000A3C374A09DE49C4003022ACFC3ED94A9C4
:102A5000EC9400507AED2460787CF27F2B123110D8
:102A6000E2FF90225C93F5A3EF90222493F5A37FDD
:102A700002123110E29021CC93F5A37F03123110A2
:102A8000E290220493F5A37F03123110E29021B467
:102A900093F5A37F03123110E29021BC93F5A37F3D
:102AA00002123110E29021D493F5A37F031231106A
:102AB000E29021B493F5A37F03123110E290223CFF
:102AC00093F5A37F03123110E290224493F5A322E1
:1015E800AD07AC067817E2FE08E2FFC39DEE9C50FB
:1015F80024EF2409FFE43EFEC3ED9FEC9E5016182D
:1016080008E2FFC3ED9F787CF27F57123110E29019
:10161800231C93F5A37829E2FE08E2FFC39DEE9C04
:10162800400302170EEF2409FFE43EFEC3ED9FECD2
:101638009E400302170E1808E2FFC3ED9F787CF264
:101648007824E2FF7862E2FED39F500B7825E2FB14
:101658007863E2C39B4005EEC39F50557F4112312A
:1016680010787CE2FF90220C93F5A3EF902224934C
:10167800F5A3E2FF90226493F5A3EF9021AC93F5D4
:10168800A3E2FF9021BC93F5A3EF9021B412310B94
:10169800E290224C12310B12310AE29021D412311D
:1016A8000BE290223C12310BE290227493F5A38056
:1016B80055781DE270507F41123110787CE2FF901E
:1016C80021CC93F5A3EF9021F493F5A3E2FF9022A8
:1016D8004493F5A3EF9021B493F5A3E290223C1232
:1016E800310BE290221493F5A37F03123110E2909C
:1016F80021D493F5A37F05123110E29021CC93F504
:10170800A37F04123110785CE2FE08E2FFC39DEE6D
:101718009C40030218EFEF2409FFE43EFEC3ED9F4F
:10172800EC9E40030218EF1808E2FFC3ED9F787C97
:10173800F27826E214600D14604614606C2403608D
:10174800030217DB7F05123110787CE2FF9021BC81
:1017580093F5A3EF9021B493F5A3E2FF902274933D
:10176800F5A3EF9021B412310BE290221C93F5A35C
:101778007F03123110E29021E493F5A37F04805097
:101788007F05123110787CE2FF90224493F5A3EF95
:101798009021BC93F5A3E2FF90225493F5A3EF9018
:1017A800224493F5A37F0280277F05123110787CAD
:1017B800E2FF9021CC93F5A3EF90224493F5A3E2A6
:1017C800FF90221493F5A3EF90226C93F5A37F0268
:1017D800123110785FE214604214606314700302DF
:1017E800187A1470030218B0240460030218EF7FFB
:1017F8006E123110787CE2FF90220C93F5A3EF90E3
:1018080021D493F5A3E2FF90225C93F5A3EF9021F6
:10181800D493F5A3E290220C0218AB7F701231101A
:10182800787CE2FF9021B493F5A3EF9021C493F55F
:10183800A3E2FF90223C93F5A3EF90222480647FDB
:101848006E123110787CE2FF90223C93F5A3EF9062
:1018580021B493F5A3E2FF9021C493F5A3EF90215F
:10186800D412310BE2FF90233C93F5A3EF9021ECC7
:1018780080317F6E123110787CE2FF90223C93F524
:10188800A3EF9021B493F5A3E2FF9021C493F5A3AD
:10189800EF9021D412310BE2FF90233C93F5A3EF94
:1018A8009021B493F5A3803F7F6E123110787CE2CB
:1018B800FF9021EC93F5A3EF90222493F5A3E2FF88
:1018C80090223C93F5A3EF9021F493F5A3E29022A4
:1018D8007C12310BE290222493F5A37F031231107E
:1018E800E290221C12310B7813E2FE08E2FFC39D3E
:1018F800EE9C4003021982EF2409FFE43EFEC3ED8B
:101908009FEC9E50751808E2FFC3ED9F787CF27F2C
:1019180005123110E2FF7862E22F9022AC93F5A312
:10192800EF90230493F5A3787CE2FF7863E22F908D
:1019380022AC93F5A308E22F93F5A3787CE29022DA
:101948005C93F5A37F7D123110E2FF7857E22F9068
:1019580022AC93F5A308E22F93F5A3787CE2FF90DD
:10196800231493F5A37855E22F9022AC93F5A3782E
:0B1978007CE2FF7856E22F93F5A322DB
:100E5A00AD07AC06EC6003021239ED24B924F85050
:100E6A005424EF24F84003020F3324F924F84003F2
:100E7A00020F6A24F924F84003020FB624F924F871
:100E8A00400302101924F924F8400302108A24F9B5
:100E9A0024F840030210D824F924F840030211422E
:100EAA0024F924F840030211A324F924F840030288
:100EBA0011EB021239ED24B9787CF27F321231102B
:100ECA00E2FF90220C93F5A3EF9021F493F5A3E2AD
:100EDA00FF90224C93F5A3EF9021D493F5A3E2FF60
:100EEA009021AC93F5A3EF9022B412310BE2902239
:100EFA004412310BE29021AC12310BE29021BC1268
:100F0A00310BE29021EC12310BE29021AC12310B41
:100F1A00E290225C12310BE278041230F7E2FF7899
:100F2A0060E22F9022AC021236ED24A0787CF27F88
:100F3A001E123110E2FF9022FC93F5A3EF902214C7
:100F4A0093F5A3E2FF9021D493F5A3EF90221C938B
:100F5A00F5A3E290225412310BE29022FC021236DF
:100F6A00ED2491787CF27808E270107F1E1231101D
:100F7A00787CE290230C93F5A380057F261231102A
:100F8A00787CE2FF9021AC93F5A3EF90222C93F5A5
:100F9A00A3E2FF9021F493F5A3EF9021CC93F5A35C
:100FAA007F3C123110E290230C021236ED24827833
:100FBA007CF27808E2640170107F1E123110787C8E
:100FCA00E290230C93F5A380057F25123110787CDB
:100FDA00E2FF9021AC93F5A3EF9021C493F5A3E22D
:100FEA00FF90222493F5A3EF90221C93F5A3E2909D
:100FFA0021DC12310BE29021F412310BE29021E450
:10100A0093F5A37F32123110E290230C021236EDCF
:10101A002473787CF27808E2640270107F1D123122
:10102A0010787CE290230C93F5A380057F2412317B
:10103A0010787CE2FF9021AC93F5A3EF90223C93C9
:10104A00F5A3E2FF9021D493F5A3EF9021C41231C6
:10105A000BE29021D412310BE29021F412310BE20F
:10106A0090225C12310BE29021D412310BE29022D1
:10107A003C93F5A37F26123110E290230C0212361C
:10108A00ED2464787CF27808E2640370107F1C1205
:10109A003110787CE290230C93F5A380057F23120C
:1010AA003110787CE2FF9021AC93F5A3EF90225C9B
:1010BA0093F5A3E2FF90224C93F5A3EF90226C9351
:1010CA00F5A37F3C123110E290230C021236ED2474
:1010DA0055787CF27808E2640470107F1B12311094
:1010EA00787CE290230C93F5A380057F22123110BD
:1010FA00787CE2FF9021AC93F5A3EF9021CC93F595
:10110A00A3E2FF9021F493F5A3EF90224493F5A371
:10111A00E290222C12310BE290220C12310BE29057
:10112A0021B412310BE290227493F5A37F2E12316F
:10113A0010E290230C021236ED2446787CF27808ED
:10114A00E2640570107F1B123110787CE290230C48
:10115A0093F5A380057F22123110787CE2FF90215B
:10116A00AC93F5A3EF90223C93F5A3E2FF9021B450
:10117A0093F5A3EF90224C12310BE29021D493F510
:10118A00A37F03123110E290224493F5A37F311218
:10119A003110E290230C021236ED2437787CF27873
:1011AA0008E2640670107F1A123110787CE29023EC
:1011BA000C93F5A380057F22123110787CE2FF9010
:1011CA0021AC93F5A3EF90224493F5A3E2FF90217B
:1011DA00B493F5A3EF90225C12310BE29021D480F4
:1011EA004BED2428787CF27808E2640770107F1AA5
:1011FA00123110787CE290230C93F5A380057F22AC
:10120A00123110787CE2FF9021AC93F5A3EF902184
:10121A00BC93F5A3E2FF9021B493F5A3EF9021C408
:10122A0093F5A37F03123110E290220493F5A322CF
:1009F700AD07AC06EC6003020E59ED24B924F8509C
:100A07004824FE24F8506F24F424F84003020AA770
:100A170024FE24F84003020B8324F424F840030245
:100A27000BC924FE24F84003020CA824F424F84040
:100A370003020CF024FE24F84003020DCC24F42416
:100A4700F84003020E10020E59ED24B9787CF27FAC
:100A57001E123110E2FF9022FC93FEF5A3EF9022C5
:100A67002C93F5A3E2FF9021F493F5A3EF9021CC0B
:100A770093F5A38EA322ED24AF787CF27F42123147
:100A870010E290223C93F5A37F12123110E29022DC
:100A97002C93F5A37F12123110E2902274020E56A6
:100AA700ED249B787CF27808E2F9FF7E0064017000
:100AB700047B0180027B00EF4E70047F0180027F80
:100AC70000EF4BFFE9640270047E0180027E00EEB6
:100AD7004F60107F1E123110787CE290230C93F543
:100AE700A380057F24123110787CE2FF9021AC931C
:100AF700FEF5A3EF90220493F5A3E2FF90222C9337
:100B0700F5A38EA3EF9021AC93F5A3E278461230BC
:100B1700F7E2FF7847E22F9022AC12310B787CE2A4
:100B2700FF7848E22F12310B787CE29021AC93F5E5
:100B3700A312310CE2FF78491230F8E2FF784AE25B
:100B47002F9022AC12310B787CE2FF784BE22F1208
:100B5700310B787CE29021AC93F5A312310CE2FFC4
:100B6700784C1230F8E2FF784DE22F9022AC123128
:100B77000B787CE2FF784EE22F020E56ED24917837
:100B87007CF27808E2700E7F41123110787CE29097
:100B9700232493F5A37808E26401700E7F54123181
:100BA70010787CE290232493F5A37808E26402602E
:100BB70003020E597F66123110787CE290232402DB
:100BC7000E56ED247D787CF27808E2F9FF7E00640A
:100BD7000470047B0180027B00EF64034E70047F86
:100BE7000180027F00EF4BFFE9640570047E0180FE
:100BF700027E00EE4F60107F1C123110787CE2906D
:100C0700230C93F5A380057F23123110787CE2FF34
:100C17009021AC93FEF5A3EF90220493F5A3E2FF96
:100C27009021F493F5A38EA3EF9021AC93F5A3E263
:100C3700FF783A1230F8E2FF783BE22F9022AC12AD
:100C4700310B787CE2FF783CE22F12310B787CE2A3
:100C57009021AC93F5A312310CE2FF783D1230F8E6
:100C6700E2FF783EE22F9022AC12310B787CE2FF54
:100C7700783FE22F12310B787CE29021AC93F5A3F9
:100C870012310CE2FF78401230F8E2FF7841E22F90
:100C97009022AC12310B787CE2FF7842E22F020EF1
:100CA70056ED2473787CF27808E26403700E7F3E79
:100CB700123110787CE290232493F5A37808E2643C
:100CC70004700E7F51123110787CE290232493F543
:100CD700A37808E264056003020E597F661231109B
:100CE700787CE2902324020E56ED245F787CF2781C
:100CF70008E2F9FF7E00640770047B0180027B0035
:100D0700EF64064E70047F0180027F00EF4BFFE91E
:100D1700640870047E0180027E00EE4F60107F1C25
:100D2700123110787CE290230C93F5A380057F2184
:100D3700123110787CE2FF9021AC93FEF5A3EF907F
:100D4700220493F5A3E2FF9021CC93F5A38EA3EFA2
:100D57009021AC93F5A3E2FF782F1230F8E2FF78E9
:100D670030E22F9022AC12310B787CE2FF7831E22F
:100D77002F12310B787CE29021AC93F5A312310C42
:100D8700E2FF78321230F8E2FF7833E22F9022AC9C
:100D970012310B787CE2FF7834E22F12310B90216D
:100DA700AC12310812310AE2FF78351230F8E2FF4F
:100DB7007836E22F9022AC12310B787CE2FF78373D
:100DC700E22F020E56ED2455787CF27808E264068D
:100DD700700E7F3E123110787CE290232493F5A3A6
:100DE7007808E26407700E7F51123110787CE29028
:100DF700232493F5A37808E2640870567F661231BE
:100E070010787CE29023248046ED2441787CF278A8
:100E170008E2640970107F1B123110787CE290237E
:100E27000C93F5A380057F21123110787CE2FF90A7
:100E370021AC93F5A3EF9021D493F5A3E2FF902281
:100E47006C93F5A3EF9021F493F5A3E290224C93D2
:030E5700F5A322DE
:10198300AD07AC06C374509DE49C504EC3ED94590F
:10199300EC94005045EF24AF787CF27F1E12311097
:1019A300E2FF9022FC93F5A3EF9021C493F5A3E209
:1019B300FF90222493F5A3EF90221C93F5A3E290CA
:1019C30021DC12310BE29021F412310BE29021E47D
:1019D30012310BE29022FC93F5A3C374649DE49C43
:1019E3004003021A7AC3ED946DEC94004003021A8B
:1019F3007AED249B787CF27808E270107F2A12310A
:101A030010787CE290230C93F5A380057F2E12318E
:101A130010787CE2FF9021AC93F5A3EF90224C93D6
:101A2300F5A3E2FF90222493F5A3EF90227493F59C
:101A3300A3E290233C12310BE290224C12310BE2D1
:101A430090226C12310BE2FF9021AC93F5A3EF12BD
:101A5300310BE2FF7E007812E27A0060047BC880DB
:101A6300027B70EB2FFFEA3EFE74AC2FF5827421EC
:101A73003EF583E493F5A3C374739DE49C506AC35A
:101A8300ED947DEC94005061ED248C787CF2780821
:101A9300E2640170107F28123110787CE290230CED
:101AA30093F5A380057F2C123110787CE2FF9021FF
:101AB300AC93F5A3EF90221493F5A3E2FF902224B5
:101AC30093F5A3EF9021CC12310BE29021D4123184
:101AD3000BE2FF9021AC93F5A3EF12310BE2FF78F9
:101AE30015E22F9022AC93F5A3C374829DE49C501E
:101AF3006AC3ED948BEC94005061ED247D787CF205
:101B03007808E2640270107F27123110787CE2902B
:101B1300230C93F5A380057F2A123110787CE2FF12
:101B23009021AC93F5A3EF90223C93F5A3E2FF90B1
:101B330021E493F5A3EF9021BC93F5A3E29021ACAC
:101B430012310B12310AE2FF7816E260047E7880CC
:101B5300027E30EF2E9021AC93F5A3C374919DE4E4
:101B63009C4003021BECC3ED949BEC9400507AED74
:101B7300246E787CF27808E2640370107F251231BA
:101B830010787CE290230C93F5A380057F28123113
:101B930010787CE2FF9021AC93F5A3EF90224C9355
:101BA300F5A3E2FF9022EC93F5A3EF90224493F583
:101BB300A3E29021E412310BE2FF9021AC93F5A351
:101BC300EF12310BE2FF7E007819E27A0060047BAA
:101BD300C880027B70EB2FFFEA3EFE74AC2FF582C8
:101BE30074213EF583E493F5A3C374A59DE49C504F
:101BF30052C3ED94AFEC94005049ED245A787CF233
:101C03007808E2640470107F24123110787CE2902B
:101C1300230C93F5A380057F28123110787CE2FF13
:101C23009021AC93F5A3EF9021BC93F5A3E2FF9031
:101C330021B493F5A3EF9021C493F5A3E29022047A
:041C430093F5A32250
:10123A00AD07AC06EC60030215E7ED24B924F850BB
:10124A004224F424F840030212E124EB24F8400378
:10125A0002139424F924F840030213E224F924F82F
:10126A00400302143024F924F8400302147E24F4C3
:10127A0024F840030214CC24F324F840030215B0E6
:10128A000215E7ED24B9787CF27F1E123110E2FFD5
:10129A009022FC93F5A3EF90223C93F5A3E2FF90F2
:1012AA0021D493F5A3EF9021C493F5A3E29021D41E
:1012BA0012310BE29021F412310BE290225C1231CE
:1012CA000BE29021D412310BE2FF90223C93F5A35A
:1012DA00EF9022FC0215E4ED24A5787CF27F261219
:1012EA003110E2FF9021C493F5A3EF9021EC93F51E
:1012FA00A3E2FF9021B493F5A3EF90221C93F5A3E8
:10130A00E2FF93F5A3EF9021D412310BE290220C65
:10131A0012310BE29021AC12310BE29022141231FD
:10132A000BE29021B412310BE290222C12310BE223
:10133A009021AC12310BE290221412310BE290226E
:10134A005412310BE290224412310BE290224C12D9
:10135A00310BE29021AC12310BE29021F412310BE5
:10136A00E290221C12310BE29021AC12310BE29076
:10137A0021B412310BE29021D412310BE290224CAB
:10138A0012310BE290223C0215E4ED2488787CF2BB
:10139A007F2A123110E2FF90223C93F5A3EF9022AC
:1013AA002493F5A3E2FF90220C93F5A3EF90231464
:1013BA0093F5A3E29021AC12310BE2FF78051230CB
:1013CA00F8E2FF7806E22F9022AC12310B787CE229
:1013DA00FF7807E22F0215E4ED2479787CF27F2961
:1013EA00123110E2FF90222C93F5A3EF9021F4938F
:1013FA00F5A3E2FF90224C93F5A3EF90231493F503
:10140A00A3E29021AC12310BE2FF78091230F8E224
:10141A00FF780AE22F9022AC12310B787CE2FF7837
:10142A000BE22F0215E4ED246A787CF27F28123150
:10143A0010E2FF90227493F5A3EF9021B493F5A3E1
:10144A00E2FF90226493F5A3EF90231493F5A3E2AD
:10145A009021AC12310BE2FF780C1230F8E2FF78DF
:10146A000DE22F9022AC12310B787CE2FF780EE26B
:10147A002F0215E4ED245B787CF27F27123110E20B
:10148A00FF90224C93F5A3EF90223C93F5A3E2FF41
:10149A0090222493F5A3EF90231493F5A3E29021CD
:1014AA00AC12310BE2FF780F1230F8E2FF7810E24B
:1014BA002F9022AC12310B787CE2FF7811E22F02D6
:1014CA0015E4ED2447787CF27F26123110E2FF9072
:1014DA0021C493F5A3EF9021EC93F5A3E2FF9022A8
:1014EA001C93F5A3EF9022D493F5A3E29022FC1269
:1014FA00310BE29022EC12310BE290231493F5A304
:10150A007F08123110782BE27F04600B12311078B9
:10151A007CE29022B48009123110787CE29022ACED
:10152A0093F5A37F06123110787CE290231493F589
:10153A00A3782CE27F04600B123110787CE29022AF
:10154A00B48009123110787CE29022AC93F5A37F23
:10155A0006123110787CE290231493F5A3782DE2D9
:10156A007F04600B123110787CE29022B480091259
:10157A003110787CE29022AC93F5A37F06123110E9
:10158A00787CE290231493F5A3782EE27F04600B13
:10159A00123110787CE29022B4803F123110787CAC
:1015AA00E29022AC8034ED2432787CF27F1812313A
:1015BA0010E2FF90230C93F5A3EF9021AC93F5A3CF
:1015CA00E2FF9021BC93F5A3EF9021B493F5A3E237
:0E15DA009021C412310BE290220493F5A3225B
:102344007880EEF208EFF2EE6003022522EF24B962
:1023540024F8502A24F424F8505724F424F850790B
:1023640024F924F8400302243324F924F840030216
:10237400249224F924F840030224D60225227880EA
:1023840008E224B9787CF27F1E123110E2FF902219
:10239400FC93F5A3EF90225C93F5A3E2FF90224C0B
:1023A40093F5A3EF90226C12310BE29022FC0225EC
:1023B4001F788008E224A5787CF27F2312311078FC
:1023C4004FE2FF1200267F0A123110787CE290213E
:1023D400AC93F5A3785E02248D788008E22491788A
:1023E4007CF27808E270107F1F123110787CE29042
:1023F400230C93F5A380057F26123110787CE2FF2D
:102404009021AC93F5A3EF9021C493F5A3E2FF9040
:1024140021EC93F5A3EF9021B412310BE290221C2E
:1024240093F5A37F171231107845E2FF0200267856
:102434008008E22482787CF27808E2640170107FDC
:102444001E123110787CE290230C93F5A380057F53
:1024540025123110787CE2FF9021AC93F5A3EF9024
:10246400222C93F5A3E2FF90222493F5A3EF90226C
:102474006493F5A3E29021D412310BE290223C93B1
:10248400F5A37F17123110785BE2FF0230377880B2
:1024940008E22473787CF27808E2640270107F1DED
:1024A400123110787CE290230C93F5A380057F24ED
:1024B400123110787CE2FF9021AC93F5A3EF9022C7
:1024C4004493F5A3E2FF9021D493F5A3EF90224C1B
:1024D4008049788008E22464787CF27808E2640316
:1024E40070107F1D123110787CE290230C93F5A3B9
:1024F40080057F24123110787CE2FF9021AC93F5A3
:10250400A3EF9021BC93F5A3E2FF9021B493F5A32C
:0F251400EF9021C412310BE290220493F5A32221
:101C4700AD07AC06EC6003021ED1ED24B924F850B1
:101C57002D24EF24F8507324F924F84003021D447F
:101C670024F924F84003021D9F24F924F8400302B5
:101C77001DFF24F924F84003021E88021ED1ED241B
:101C8700B9787CF27F1E123110E2FF9022FC93F5A7
:101C9700A3EF9021CC93F5A3E2FF9021F493F5A352
:101CA700EF90224493F5A3E290222C12310BE2909D
:101CB700220C12310BE29021B412310BE290227404
:101CC70012310BE29022FC021ECEED24A0787CF2AA
:101CD7007808E270107F1F123110787CE290230C95
:101CE70093F5A380057F26123110787CE2FF9021BF
:101CF700AC93F5A3EF9021CC93F5A3E2FF9021F4E9
:101D070093F5A3EF90224493F5A3E29021B4123107
:101D17000BE290223C12310BE290221412310BE2BB
:101D270090231493F5A37F14123110E2FF7838E261
:101D37002F9022AC93F5A308E22F021ECEED24913B
:101D4700787CF27808E2640170107F1F12311078F6
:101D57007CE290230C93F5A380057F26123110783F
:101D67007CE2FF9021AC93F5A3EF90221493F5A3A7
:101D7700E2FF90222493F5A3EF9021CC12310BE2DE
:101D87009021D412310BE290231493F5A37F1912FB
:101D97003110E2FF78028052ED2482787CF27808D5
:101DA700E2640270107F1E123110787CE290230CDF
:101DB70093F5A380057F25123110787CE2FF9021EF
:101DC700AC93F5A3EF90225C93F5A3E2FF90222456
:101DD70093F5A3EF90220C12310BE290231493F5A5
:101DE700A37F19123110E2FF7827E22F9022AC93DC
:101DF700F5A308E22F021E80ED2473787CF27808A1
:101E0700E2640370107F1C123110787CE290230C7F
:101E170093F5A380057F23123110787CE2FF902190
:101E2700AC93F5A3EF90220C93F5A3E2FF90222445
:101E370093F5A3EF90226493F5A3E29021BC1231AE
:101E47000BE29021B412310BE290224C12310BE2DB
:101E570090231493F5A37F14123110E2FF7824E244
:101E67002F9022AC93F5A3EF90230493F5A3787CEE
:101E7700E2FF7825E22F9022AC93F5A37F01023190
:101E870010ED2464787CF27808E2640470107F1CFB
:101E9700123110787CE290230C93F5A380057F2301
:101EA700123110787CE2FF9021AC93F5A3EF9021DB
:101EB700BC93F5A3E2FF9021B493F5A3EF9021C45F
:0B1EC70012310BE290220493F5A322DD
:101ED200AD07AC06EC600302211BED24B924F850D7
:101EE2002424EF24F8506124F924F84003021FB897
:101EF20024F924F8400302204F24F924F840030275
:101F020020D202211BED24B9787CF27F1E123110FF
:101F1200E2FF9022FC93F5A3EF90223C93F5A3E21B
:101F2200FF9021B493F5A3EF90224C93F5A3E29096
:101F320021D412310BE290224493F5A37F03123194
:101F420010E29022FC022118ED24A0787CF278089D
:101F5200E270107F1F123110787CE290230C93F50F
:101F6200A380057F24123110787CE2FF9021AC938C
:101F7200F5A3EF90223C93F5A3E2FF9021B493F5F1
:101F8200A3EF90224C93F5A3E29021D412310BE2FD
:101F920090231493F5A37F14123110E2FF781EE20E
:101FA2002F9022AC93F5A308E22F93F5A3787CE25D
:101FB200FF7820022041ED2491787CF27808E264D7
:101FC2000170107F1E123110787CE290230C93F581
:101FD200A380057F23123110787CE2FF9021AC931D
:101FE200F5A3EF90223C93F5A3E2FF9021B493F581
:101FF200A3EF90224C93F5A3E29021D412310BE28D
:1020020090233C12310BE290227412310BE29021A8
:10201200B412310BE290226412310BE2902314933A
:10202200F5A37F14123110E2FF7850E22F9022AC18
:1020320093F5A308E22F93F5A3787CE2FF7852E2AE
:102042002F93F5A308E22F93F5A30220CDED24826E
:10205200787CF27808E2640270107F1E12311078E8
:102062007CE290230C93F5A380057F221231107835
:102072007CE2FF9021AC93F5A3EF90222C93F5A381
:10208200E2FF90223C93F5A3EF90222493F5A3E282
:102092009021DC12310BE29021F412310BE29022FA
:1020A2000C12310BE29021D412310BE290231493E3
:1020B200F5A37F141231107861E2787C6006E29019
:1020C20021BC8004E29021B493F5A37F0102311078
:1020D200ED2473787CF27808E2640370107F1E129C
:1020E2003110787CE290230C93F5A380057F2212B5
:1020F2003110787CE2FF9021AC93F5A3EF9021BCE4
:1021020093F5A3E2FF9021B493F5A3EF9021C412BB
:0A211200310BE290220493F5A322A2
:102E5600022F58E493A3F8E493A34003F68001F20B
:102E660008DFF48029E493A3F85407240CC8C3337D
:102E7600C4540F4420C8834004F456800146F6DF4C
:102E8600E4800B0102040810204080902BBFE47EF2
:102E9600019360BCA3FF543F30E509541FFEE49341
:102EA600A360010ECF54C025E060A840B8E493A308
:102EB600FAE493A3F8E493A3C8C582C8CAC583CA33
:102EC600F0A3C8C582C8CAC583CADFE9DEE780BEEB
:012CA400002F
:102ED600BB010CE58229F582E5833AF583E02250B1
:102EE60006E92582F8E622BBFE06E92582F8E222FB
:0D2EF600E58229F582E5833AF583E4932215
:102F0300BC000BBE0029EF8DF084FFADF022E4CCB2
:102F1300F875F008EF2FFFEE33FEEC33FCEE9DEC7B
:102F2300984005FCEE9DFE0FD5F0E9E4CEFD22EDC1
:102F3300F8F5F0EE8420D21CFEADF075F008EF2F0B
:102F4300FFED33FD4007985006D5F0F222C398FDFC
:052F53000FD5F0EA2299
:00000001FF
