:020000040800F2
:10000000C00F0020D9000008FF000008450D0008BF
:1000100000000000000000000000000000000000E0
:1000200000000000000000000000000003010008C4
:100030000000000000000000050100086514000831
:100040000901000809010008090100080901000868
:100050000901000809010008090100080901000858
:100060000901000809010008F10900084D0A00080B
:100070000901000809010008090100080901000838
:10008000090100080000000000000000090100084C
:10009000000000000901000809010008090100082A
:1000A000000000000901000809010008090100081A
:1000B0006918000800000000090100080901000893
:1000C0000448854600F0B2FB00F052F800480047B3
:1000D000FD3E0008C00F00200C4880F308880C4843
:1000E0000168090E0B4A914205D10B480B4901608A
:1000F0000B480C4901600C4880470C480047FEE75C
:10010000FEE7FEE7FEE7FEE7FEE70000C00F002087
:10011000040000001F000000181002400100000051
:10012000000001400000000069140008C100000840
:1001300030B50B46014600202022012409E00D467F
:10014000D5409D4205D31D469540491B2546954007
:1001500040191546521E002DF1DC30BD0321001D53
:10016000401E037812021A43491EF9D51046704703
:1001700070B5054C054D03E0206800198047241D2B
:10018000AC42F9D170BD000090650008946500088C
:10019000F8B502464A40D40F42004B0052085B08B3
:1001A0009A4202D20246084611464A0023D0C30DA5
:1001B0004A00DDB2120EAD1A202D35DA49020126B1
:1001C000490AF6058A19002C00D0524220214F1B03
:1001D0001146B9402A411018C20D9A4221D0002C74
:1001E00017D0012D08DCDA05801AD20F8019D2074A
:1001F000DBB200F04CF9F8BDDA05801A01234000AB
:100200001B06C01880185A428018CA0F10434900B4
:1002100007E04908C2071143DA05801A801940082F
:10022000801800F02CF9F8BD61000122511A001B62
:10023000F7E70122D2075140AAE70122D207504036
:10024000A6E7024670B54A40D30FDB0740002DD029
:100250004A002AD0010E140E000212020919400AA7
:10026000520A8418E50104465443000A120A2E0477
:100270005043A4194219200CC543AA18120C012599
:10028000AD03521C521912047F39240400D0521CB1
:10029000104301D44000491EC2B20C06C009201808
:1002A000401C4008802A02D003E0002070BD4008B6
:1002B0004000002900DA0020184370BD70B50246E6
:1002C0004A40D50F40004A00ED0740085208002878
:1002D00014D0002A12D0C40DD30D41020120C00554
:1002E0005202490A520AE41A091812187D3491423E
:1002F00001D3641C00E04900002C01DA002070BD2D
:100300000023914201D3891A034340084900002881
:10031000F7D100290AD0914202D10121C90705E095
:10032000914201D2012101E00121C943E005C01839
:10033000401900F0A4F870BD420005D04200120E32
:1003400052428A4201DB00207047C90508187047F5
:10035000C217C10F504010B54018CA07962300219C
:1003600000F095F810BD10B500229623114600F05C
:100370008EF810BDC20F410040020123400ADB0588
:10038000D207090EC0187F2901DA0020704796298C
:1003900003DC9623591AC84001E096398840002AA8
:1003A000F4D040427047410040020122400AD20589
:1003B000090E80187F2901DA00207047962903DC96
:1003C0009622511AC84070479639884070470000FD
:1003D0004A0009030123090B1B051943094B10B5FA
:1003E000520D9A4201DA002010BD064B34339A4276
:1003F00003DC9A1A00F032F810BD03495118884006
:1004000010BD0000FF030000CDFBFFFFC20FD207AD
:10041000400040080BD0C10D0723DB01C918400282
:100420000905400A1143C2084007114370470020E4
:10043000014670470122D207002800DB101A00296C
:1004400000DB511A814270470122D207002800DBED
:10045000101A002900DB511A8842704710B5202A73
:1004600004DB0846203AD040002110BD0B46D340A3
:10047000D0402024A21A91400843194610BD0029FB
:1004800004DA401C490001D140084000704770B4B4
:100490000024050C05D11024000402D1002921D02C
:1004A0001124050E01D100020834050F01D100010D
:1004B000241D850F01D18000A41C002801DB400011
:1004C000641C002908D020252E1B0D46F540A140B4
:1004D00000D001212943084301061B1B000ADB1D34
:1004E00002D5002070BC7047DB0518188018002961
:1004F000F8DA401C4900F5D170BC40084000704754
:1005000010B541000DD04100090E962909DC7E2965
:100510000ADC07DB410205D0C00F7F21C007C905F7
:10052000401810BD002010BD9622541A20210A1B2D
:1005300001469140E040FFF7A2FFA04010BD10B57A
:10054000002B08DA0024401C614192185B411A43D9
:1005500001D14008400010BDF0B51FB482B005467F
:100560000C0003D0084601F052FA02E001F04FFA05
:100570002030024600902146284600F069F9049B8D
:10058000059A04460F4618431143084314D01846F1
:1005900010431BD0009840210A1A18460599FFF70E
:1005A0005DFF05460E46009A0599049800F050F943
:1005B000084305D0012004E02046394607B0F0BDCD
:1005C0000020C11705430E432C43374300990E9872
:1005D0006305401A7905E40A00220C43FD0A0A303B
:1005E00002D500200146E9E70105101969410C9C7C
:1005F0000D9D00196941FFF7A2FFDFE7F0B507463F
:100600000846584087B0C00F049048000E46590075
:1006100040084908BC1A884105D2384631461E4672
:1006200017460B4602465800400810434CD0300D88
:10063000039040055900400D490D0590401A029065
:10064000402872DA18030121000B090508430190C4
:1006500004980092002805D0019952420020884158
:1006600000920190029840210A1A0199009800F026
:10067000EFF805460C466B4607CB00F0F9F8C019B9
:100680007141039A0E0D0023D71756401A467A403F
:10069000164344D0049A002A2DD0029A012A039AC4
:1006A00015DC1205C01A914101263605001C714166
:1006B000D20F059ED2070093019202962A46234646
:1006C000FFF74AFF07B0F0BD38463146FAE7160596
:1006D000224A0F46B218C01AB74101210905001C71
:1006E0004F4100187F41114618187941E20F10431D
:1006F0006D19644113E0E2076D0815436408C207F1
:100700001443039A01261205C01A91413605001CB4
:100710007141CE07400830434908C01851412A466C
:100720002346FFF70CFFCDE7FFE7049801224000C6
:10073000C117121A00238B4104983146C417381A86
:10074000A141EEE730B40124E407634030BC55E733
:1007500030B40124E407614030BC4FE70000E0FF03
:10076000F8B50546480040080C46284304D0600010
:10077000184A400D904201DD2846F8BD154935392B
:10078000884210DC88420BDB290D20030843290333
:10079000014305D0E00F1049C00741180020F8BD03
:1007A00000200146F8BD161A4020821B284621462B
:1007B00000F04EF807460091284621463246FFF7E2
:1007C0004DFE3A46009BFFF7BAFE324600F040F875
:1007D000F8BD0000330400000000F03F10B5002910
:1007E00004DB0124E40740428C412146002B04DB5A
:1007F0001C460123DB075242A3418B4200D18242B7
:1008000010BD000010B5002904DB0124E4074042BC
:100810008C412146002B04DB1C460123DB0752429E
:10082000A341994200D1904210BD0000064C012521
:10083000064E05E0E36807CC2B430C3C9847103488
:10084000B442F7D3FFF740FC7065000890650008DC
:1008500010B5202A04DB0146203A9140002010BD4B
:10086000914020239C1A0346E3401943904010BD59
:1008700010B5202A06DBCB170846203A1041C117D5
:100880000B4306E00B461341D0402024A21A9140AE
:100890000843194610BD70B58C180578401C6B07CD
:1008A0005B0F01D10378401C2A1106D10278401C4D
:1008B00003E006780E70401C491C5B1EF9D12B0723
:1008C00005D40023521E0DD40B70491CFAE703789F
:1008D000401CCB1A921C03E01D780D70491C5B1C58
:1008E000521EF9D5A142D8D3002070BD836A0B43B4
:1008F0008362426170470029816801D0012200E0D3
:1009000002221143816070470029C16802D0012290
:10091000114301E049084900C1607047C2680223E1
:100920009A43C260C2680A43C2607047826800216D
:100930000123DB071A4382600F231B038268491CD3
:10094000D20FD207994201D0002AF7D1816800293D
:1009500001DB006C704700207047000030B5C268B2
:10096000084B8C681A400B680D792343CC686D03E3
:100970002C4323430C69496923430B431343C3604E
:1009800030BD000003D2FFFF816804221143816063
:1009900070470021016001718160C16001614161A6
:1009A000704700000122054992050028886801D09F
:1009B000104300E09043886070470000002701402A
:1009C00070B5054600200346D5240DE0EA5C504092
:1009D0000022060602D54000604000E04000521CA4
:1009E000C0B2082AF5DB5B1C8B42EFDB70BD000058
:1009F00010B50021124800F041F8114800213C38A0
:100A000000F03CF80E480021283800F037F80D4C73
:100A1000072100220902204600F075FD601500F054
:100A200027F80021204600F058FD074C6068022896
:100A300003D10120606004F09FFD0020606010BDC4
:100A400058000240002C01404803002010B501244A
:100A50006403204600F064F8012802D1204600F02B
:100A600001F810BD014948607047000000000240D5
:100A700001494860704700000000024000290168F9
:100A800002D00122114301E0014A11400160704788
:100A9000FEFF00000168204A114001600021016052
:100AA00041608160C1601D491C4A0839904202D1F1
:100AB00048680F2205E0194A1432904204D1486870
:100AC000F022104348607047144A2832904203D104
:100AD00048680F221202F4E7104A3C32904203D1D8
:100AE00048680F221203ECE70C4A5032904203D1BF
:100AF00048680F221204E4E7084A6432904203D1A6
:100B000048680F221205DCE7044A78329042DAD1B5
:100B100048680F221206D4E7FEFF000008000240DA
:100B2000034A0146126800200A4200D001207047A3
:100B300000000240002A026801D00A4300E08A4314
:100B40000260704730B503680C4A0C6A13408A682B
:100B50004D6922430C692C4322438C692243CC69A2
:100B600022434C6A22438C6A22431A430260CA68B9
:100B700042600A6882604968C16030BD0F80FFFF33
:100B8000416070470021016041608160C160016186
:100B900041618161C161016241628162704700000F
:100BA000F0B50B2706463F04384600F067F80428E6
:100BB0000FD1084C20690225284320616661206915
:100BC000402108432061384600F058F82169A943C4
:100BD0002161F0BD0020024008490420CA68D20704
:100BE00001D001207047CA68D20601D502207047A3
:100BF000C9684907FBD50320704700000020024068
:100C000002480169802211430161704700200240BF
:100C1000F8B5064600200B273F0400900D463846E5
:100C200000F02CF8042815D10B4C20690121084351
:100C300020613580384600F021F8042806D1B61C22
:100C4000290C00963180384600F018F821694908CF
:100C500049002161F8BD00000020024004480169FC
:100C6000090603D50349416003494160704700000C
:100C70000020024023016745AB89EFCD00B5034654
:100C8000FFF7AAFF02E0FFF7A7FF5B1E012803D0D2
:100C9000002B00D1052000BD002BF4D1FAE7F0B500
:100CA0000022032501230C6893401C409C422AD15A
:100CB0000C79012C01D0022C12D1876854002E46E9
:100CC000A640B74387604E79A64084682643866075
:100CD00084889C43848084888B7993401C438480DF
:100CE000066853002C469C40A64306600E790768B0
:100CF0009E403E430660C668A643C660CC799C40D1
:100D0000C3681C43C460521C102ACBD3F0BD4B07F0
:100D1000DB0E9A40C90810B589000818016A0F2433
:100D20009C40A1430162016A1143016210BD024669
:100D3000128A00200A4200D00120704701857047C6
:100D400081617047052002F0DFF80029016802D0B8
:100D50000122114301E04908490001607047012266
:100D600092030029416801D0114300E091434160A2
:100D700070470246926900200A4200D00120704765
:100D800010B502685208520002600268134B8C686A
:100D90001A4024024B681443234303600F230A685C
:100DA0001B069A430261026801231A430260002273
:100DB0008260C2600B698A691A438260826801237B
:100DC000DB031A438260CA68036813430360426806
:100DD000034B49691A401143416010BDFFE0CF0049
:100DE000FF7FFF07406AC0B2704781627047000012
:100DF00070B5049D44688905890D1204034E1143A2
:100E00001943344029432143416070BD009800FCE0
:100E100070B5074C074D2146284600F0CDF8214615
:100E2000284600F021F92146284600F075F970BDEA
:100E30000000F04100004843F8B51E4C064620680B
:100E4000002801DC3046F8BDA168E069FFF7F9F938
:100E500005466168A069FFF7F4F93146FFF7EDF93F
:100E60002946FFF7E6F905464000FF214008C9057D
:100E7000081AC00F04D1284600F017FE002800D041
:100E800035466169E069FFF7DCF90090A0692169E6
:100E90000746FFF7D6F906462846E168FFF7D1F97D
:100EA0003146FFF775F90099FFF772F9E761A5611F
:100EB000F8BD0000C0020020F8B51E4C0646206AAE
:100EC000002801DC3046F8BDA16AE06BFFF7B9F9F4
:100ED0000546616AA06BFFF7B4F93146FFF7ADF93B
:100EE0002946FFF7A6F905464000FF214008C9053D
:100EF000081AC00F04D1284600F0D7FD002800D002
:100F00003546616BE06BFFF79CF90090A06B216B9D
:100F10000746FFF796F906462846E16AFFF791F97A
:100F20003146FFF735F90099FFF732F9E763A5631A
:100F3000F8BD0000C0020020F8B51E4C0646206C2B
:100F4000002801DC3046F8BDA16CE06DFFF779F9AF
:100F50000546616CA06DFFF774F93146FFF76DF936
:100F60002946FFF766F905464000FF214008C905FC
:100F7000081AC00F04D1284600F097FD002800D0C1
:100F80003546616DE06DFFF75CF90090A06D216D55
:100F90000746FFF756F906462846E16CFFF751F978
:100FA0003146FFF7F5F80099FFF7F2F8E765A56518
:100FB000F8BD0000C0020020FEB50D46FFF77EF927
:100FC00001462648FFF77AF905F044F901460090FA
:100FD000FFF737F904460190214801F0B1FD0121E6
:100FE000FFF7AAF90099FFF72CF97F27FF0539468B
:100FF000FFF7CEF82146FFF7CBF81A4C06462560DE
:10100000002D29DD31460198FFF758F905460121E9
:10101000E060FFF791F96561206139460198FFF7BB
:1010200008F90121FFF788F93146FFF747F96060B9
:101030000B48019D01F084FD0121FFF77DF9009926
:10104000FFF7FFF83946FFF7F8F82946FFF7A0F851
:101050003146FFF733F9A060FEBD0000DA0F4940CA
:10106000DA0F493FC0020020FEB50D46FFF726F912
:1010700001462648FFF722F905F0ECF801460090FA
:10108000FFF7DFF804460190214801F059FD0121E6
:10109000FFF752F90099FFF7D4F87F27FF0539468B
:1010A000FFF776F82146FFF773F81A4C06462562DB
:1010B000002D29DD31460198FFF700F90546012191
:1010C000E062FFF739F96563206339460198FFF75D
:1010D000B0F80121FFF730F93146FFF7EFF8606211
:1010E0000B48019D01F02CFD0121FFF725F9009926
:1010F000FFF7A7F83946FFF7A0F82946FFF748F8A9
:101100003146FFF7DBF8A062FEBD0000DA0F494070
:10111000DA0F493FC0020020FEB50D46FFF7CEF8BA
:1011200001462648FFF7CAF805F094F801460090FA
:10113000FFF787F804460190214801F001FD0121E5
:10114000FFF7FAF80099FFF77CF87F27FF0539468B
:10115000FFF71EF82146FFF71BF81A4C06462564D8
:10116000002D29DD31460198FFF7A8F80546012139
:10117000E064FFF7E1F86565206539460198FFF7FF
:1011800058F80121FFF7D8F83146FFF797F8606467
:101190000B48019D01F0D4FC0121FFF7CDF8009927
:1011A000FFF74FF83946FFF748F82946FEF7F0FFFA
:1011B0003146FFF783F8A064FEBD0000DA0F494016
:1011C000DA0F493FC002002030B58278012401784F
:1011D000002A15D08B080E4A9B009A1813688907BD
:1011E000C90EFF258D40AB434578AD072D0E8D40D0
:1011F0001D4315600078C006C00E8440054804E019
:10120000C806C00E844003488030046030BD000032
:1012100000E400E000E100E070B5FF250021044695
:10122000AD05C943FFF788F806460F4960100C1A50
:1012300021463046FFF705F82146FFF702F8294618
:10124000FEF7FBFF2146FEF7FCFF04460146304651
:10125000FEF7F7FF2146FEF7F4FF2946FEF7EDFF04
:101260002146FEF7EEFF70BDDF59375F044A0029C3
:10127000516901D0014300E0814351617047000092
:1012800000100240044A0029D16901D0014300E066
:101290008143D1617047000000100240044A0029D8
:1012A000916901D0014300E08143916170470000E2
:1012B00000100240F8B5464E0446716800200C222A
:1012C000444D114005D0042903D0082903D00C292E
:1012D00018D0256018E07168706803228902D20373
:1012E0000F0F1040BF1C002809D0F06A0107090F3A
:1012F0002846491CFEF71CFF7843206004E036486E
:101300007843FAE7354921607168354F0906090FBE
:101310007B5C21680A46DA40626073685B055B0F9C
:10132000FB5CDA40A260336BDB0501D42D4B05E09A
:1013300073685B0401D4530800E09308E360336BE7
:101340005F06294B03D4284F1237276100E0236141
:10135000376BFF0601D4656100E06161376BBF0741
:101360000ED0376BBF07BF0F012F0BD0376BBF07F6
:10137000BF0F022F08D0376BFF43BF0706D006E030
:10138000A26104E0A16102E0A36100E0A561376B06
:10139000BF03BF0F0FD0326B9203920F012A0CD004
:1013A000316B8903890F022909D0316B8903890FB9
:1013B000032906D006E0E26104E0E16102E0E361B6
:1013C00000E0E561316B090600D404482062F8BDF5
:1013D0000010024000127A0000093D00006CDC029F
:1013E00050030020809FD5000080000004490A6B54
:1013F00010239A430A630A6B02430A637047000092
:10140000001002400CB500200090019013491120FB
:1014100008601348416841604168416041687B222F
:10142000D2039143416041680522D20411434160D7
:101430000168012212061143016001688901FCD58F
:101440004168890889004160416802221143416076
:1014500041680907890F0229FAD10CBD002002401A
:10146000001002407047000010B5144801680122C6
:10147000114301604168124A114041600168114AFC
:1014800011400160016801229204914301604168AA
:101490003F22120491434160C16A09090901C162F6
:1014A000016BFF22543291430163416B49084900AB
:1014B000416300218160FFF7A5FF10BD00100240CD
:1014C0000CB8FF08FFFFF6FE80220029018801D03A
:1014D000114300E09143018070470029018802D048
:1014E0000122114301E04908490001807047403062
:1014F0000029818803D00122D203114301E049046D
:10150000490C81807047002A828901D00A4300E09B
:101510008A4382817047000070B5028C52085200E5
:101520000284048C8288038B7025AB439B080D8852
:101530009B001D4302239C438E894B882643104CFD
:101540003343A04208D00F4CA04205D00E4CA0421D
:1015500002D00E4CA0420DD10824A343CC891C43D9
:1015600004239C438B882343094C22400C8A144358
:101570004A8A22438280058389684163038470BD5F
:10158000002C01400040014000440140004801405F
:10159000FFFC0000028B08239A430A430283704732
:1015A00070B5028C10239A430284048C8288038BCA
:1015B0001A4D2B400D782D062D0C1D4320239C43E6
:1015C0008B891B051E0C4B8826431B051B0C144CDA
:1015D0003343A04202D0134EB04219D1124E3240D2
:1015E0000E8AB604360C3243A04211D18024A343A4
:1015F000CC892405240C1C4340239C438B881B0569
:101600001B0C2343094C22404C8AA404240C224383
:101610008280058389688163038470BDFF8C00002C
:10162000002C014000400140FFFB0000FFF70000DC
:10163000028B034B09021A401143018370470000DB
:10164000FFF7000030B5028C124B1A400284058C63
:101650008288838B104C23400C782406240C1C4376
:101660000E4B1D400B7B1B071B0C2B438D782D074E
:101670002D0C1D430A4B984205D10A4B13400A8A90
:101680009205120C1A438280848389680164058460
:1016900030BD0000FFEF0000FF8C0000FFDF000006
:1016A000002C0140FFBF00000021018041808180AB
:1016B00081608181C18101824182704741627047AE
:1016C00010B50288144B984206D00124A407A0420A
:1016D00002D0124CA04203D17024A2434C88224372
:1016E0000F4CA04203D00F4C22400C8922430280B1
:1016F0004A68C2620A880285984208D00A4A904223
:1017000005D00A4A904202D0094A904201D1897A12
:1017100001860121818210BD002C0140000400409F
:1017200000100040FFFC0000004001400044014068
:10173000004801400021C94341600021018001812E
:10174000418081727047000010B5074C002120468F
:10175000FFF794F90C212046FFF712FA01212046E9
:10176000FFF78CF910BD000044000240F0B50121E4
:1017700006464C0495B02046FFF784FD0121204623
:10178000FFF774FD0221684601720024847201256E
:10179000C5720321417204200927FF06019001A9A7
:1017A0003846FFF77CFA012202213846FFF7AFFAEC
:1017B0000E960C260F941094119413940EA927489A
:1017C000129600F0B7F80121244800F0A9F8012191
:1017D000224800F070F84021204800F065F81C21F4
:1017E0006846017044708570FFF7EEFC01210846E1
:1017F000FFF73CFD1A4F3846FFF74CF9174807949E
:1018000028300390174804901020059080200890FD
:10181000400106960C9009940A940B9403A90D9428
:101820003846FFF78FF9012202213846FFF782F987
:1018300001228021094800F048F86803FFF712F9F7
:1018400000213846FFF71AF90B21684601704470F1
:101850008570FFF7B9FC15B0F0BD000000440040F2
:10186000440002402804002070B50D4D0D4C29465F
:10187000204600F039F8002803D02946204600F021
:1018800015F80821204600F028F8012806D1082183
:10189000204600F009F8204600F09AF870BD0000DC
:1018A000050105000044004001627047090C012257
:1018B0008A40026270470029016802D00122114368
:1018C00001E04908490001607047002A826801D0A0
:1018D0000A4300E08A43826070470246D2690020D2
:1018E0000A4200D00120704730B50A04130E0125CA
:1018F0002A4600248A40012B0ED0022B0ED083688A
:10190000090C1340C0698D402840002B02D00028EC
:1019100000D00124204630BD0368F1E74368EFE7BB
:1019200008220029816801D0114300E091438160C1
:101930007047000030B50446006889B00D46400885
:10194000400020606068032109038843A9680143BF
:10195000616020681A49EA680840696811432A6989
:10196000024311432160A068032109028843696989
:101970000143A1606846FFF79DFC1248844201D1F3
:10198000069805E01048844201D1079800E00298CB
:1019900021680904296800D54000FEF7C9FB2A68C0
:1019A00052088A4200D8401C2168090404D5010766
:1019B000064A490F10400843A08109B030BD00001D
:1019C000F3E9FFFF0038014000440040F0FF000051
:1019D000808CC005C00D70470146034888600348ED
:1019E000C8600846704700000AD7A33C249A843D8B
:1019F0000146034888600348C860084670470000F5
:101A00000AD7A33C249A843D00210160704720211D
:101A1000020C01D010211046020A01D010460839EC
:101A2000020901D01046091F820801D01046891E04
:101A3000420801D0881E7047081A7047F0B4040CA1
:101A40008BB2264682B25E430D0C1046370C5843CB
:101A5000360480190021794116466E43370C36044E
:101A60008019794126466E438919F0BC704730B41D
:101A70007446641E2578641CAB4200D21D46635D2B
:101A80005B00E31830BC18474100080200D0042076
:101A90000A0E01D001221043090EFF2901D10221B3
:101AA0000843012800D105207047FF2140000906A6
:101AB000884201D10120704700207047FFB581B0F6
:101AC0001C4617460E0007D0019D02E02846B0478D
:101AD000ED192046641EF9D2019805B0F0BD10B58D
:101AE0000121FEF729FC10BD10B500210846FEF7C4
:101AF000E5FB10BD5E2110B5C9430807FEF71CFCCD
:101B000010BD0000F0B50E4614465100FF2212062B
:101B100087B0914203D31116316007B0F0BD0120A8
:101B20002502C0070543E00D7838C206D20E2020FA
:101B3000871A6000000E7838401181004D487844C3
:101B40000B189C464358002A14D0604640689340C6
:101B50000146F84003436046806891408646F8405D
:101B60000143039160467146C0689140F8400143CB
:101B70000F4603E06046416803918768184629468E
:101B8000FFF75CFF0291049029460398FFF756FF88
:101B90000391069038462946FFF750FF0F460698F6
:101BA000029B3D18049A0399BD4201D2012700E02F
:101BB00000278818C019002F02D0884202D903E0FC
:101BC000884201D2012100E0002159180A46203242
:101BD0009709C20C890652034003376011430190F4
:101BE0000846FEF7B5FB02900198FEF7BCFB1221F8
:101BF000C943FEF7A1FB01902846FEF7B4FB25215F
:101C0000C943FEF799FB009001990298FEF7C0FACC
:101C10000099FEF7BDFA0121C9024018050B2D03FA
:101C200028460299FEF705FB0199FEF702FB009991
:101C3000FEF703FB1049FEF704FB00900F4928460E
:101C4000FEF7FFFA0099FEF7A3FA00900C49284628
:101C5000FEF7F7FA0099FEF79BFA002C00DB5CE731
:101C600001210907C91B31600121C907484007B09C
:101C7000F0BD00000E4A0000DB0FC92F22AAFD298B
:101C80000000C92F02E008C8121F08C1002AFAD1BB
:101C900070477047002001E001C1121F002AFBD1EC
:101CA0007047000001490860704700006803002089
:101CB00010B5032310220B490B48FFF7FFFE0A481B
:101CC0000323102209493030FFF7F8FE08480021AD
:101CD000016005480323082206496030FFF7EEFE45
:101CE00010BD0000D9190008E0050020F119000816
:101CF00098010020091A0008F0B587B006236A464B
:101D00003B21682001F026FE00980199000240184E
:101D100000B24042FEF71CFB054602980399000200
:101D2000401800B2114E4042FEF712FB04460498E0
:101D300005990002401800B2FEF70AFB0146012097
:101D4000C007414045404440B16030C60B270024E5
:101D5000FF43083EA50070593946FEF7EDFA641CB2
:101D60007051032CF6DB07B0F0BD000088050020A1
:101D700070B594B04020069003206946087700248F
:101D8000CC77092006A9C006FEF789FF0121480289
:101D9000FFF784FA01210846FFF768FA29480890FE
:101DA0002948099002200B9080200D9040000E9051
:101DB0000A9480000F90202010900C940002234D74
:101DC000119008A912942846FEF7BCFE1D4E022170
:101DD000403E3046FEF7A2FD01213046FEF794FD5D
:101DE0006846FEF7D6FD012069460094087104207C
:101DF0000590029404943046FEF7B0FD01210722BD
:101E000049043046FEF772FD072240213046FEF7B6
:101E10006DFD0120FEF7C6FD3046FEF787FD01216E
:101E20003046FEF768FD3046FEF7AEFD012128463C
:101E3000FEF724FE06480088FEF795FA024948603E
:101E400014B070BD4024014020030020080002406F
:101E5000BAF7FF1F10B50B49002803D0012808D09E
:101E6000002010BD0888FEF77EFA0749FEF7E9F961
:101E700010BD4888FEF777FA014602484068FEF731
:101E80001DFA10BD200300203333113CF0B584004F
:101E9000304887B005597F2168004008C905029085
:101EA000FEF7CBF906462946FEF7CBF9294930392A
:101EB00009680191FEF7C5F9059029460298FEF7D9
:101EC000C0F92449203909680091FEF7BAF907469C
:101ED0002048083001592846FEF7ABF91D49049007
:101EE00028390968FEF7ADF93146FEF7AAF91A4913
:101EF00009680391FEF7A5F90599FEF749F9154917
:101F0000064610390851083904980968FEF799F90E
:101F10000299FEF796F90399FEF793F93946FEF711
:101F200037F90C490839085101463046FEF730F9B7
:101F3000084E103630513046083805510099019846
:101F4000FEF726F90146A01901F004FF305907B049
:101F5000F0BD0000D001002004020020F8B50546C5
:101F60000C46480000D1294C01210026C9078D42AA
:101F700003D94C404D408126F605002C09DC204653
:101F800048402C460546012189073046FEF700F9F6
:101F9000064621462846FEF757FA10D8214628461D
:101FA000FEF747F9074621462846FEF7F1F80446B2
:101FB0007F213D46C9053046FEF7EAF80646214630
:101FC0002846FEF77BF904461149FEF73AF9114914
:101FD000FEF7DEF82146FEF734F90F49FEF7D8F890
:101FE0002146FEF72EF904460C493046FEF729F942
:101FF0002146FEF7CDF80A49884202DD0949FEF77D
:1020000018F90949FEF71DF9F8BD0000567C0A2AA7
:102010004BC887BD7EAE36BE42DA833FDB0F493FF9
:10202000DB0F4940DB0FC940E12E654270B5184C0B
:10203000206C002804D00025012809D0256470BD3B
:102040000120E06203F09EFD206C401C206470BD06
:10205000172004F032FAC00608D58F21002004F0C2
:1020600051FA2564E56202F067FA70BD01F074FA76
:10207000216D401A07498842F7D9E12004F0FCF9A4
:102080008F21002004F03EFA2564E56270BD000057
:10209000940000201027000070B5002506462C464D
:1020A000A00030580146FEF7CCF82946FEF770F83C
:1020B000641CE4B20546032CF2D3FFF7ADF80146E9
:1020C0007F20C005FEF7FAF870BD0000FEB50720BE
:1020D00004F0F3F90007400F0026072801D0022082
:1020E00000E030460124714D002870D02869002896
:1020F0001DD001F031FA07460F216D4804F0C7F9F1
:1021000000F000FE00285AD0A86C401CA864686843
:10211000002801D0FFF78AFF6E63AE6368696F65C0
:10212000AF652E632866E86A002846D047E00F2195
:102130005F4804F0ACF95E4B1868A42801D0A328CE
:1021400045D1A32802D15B486C60A8625748197E2C
:1021500044300170197F4170198C8170998CC17065
:102160005549524F8868C968009001200191643731
:102170008100595C6A4611543A18203A401CD177C4
:102180000628F5DB0621684604F055F9302069463B
:1021900008700621684604F04EF9444869694430E5
:1021A000415C252004F0AEF92C61AC6001F086F8AA
:1021B00001F0D2F94149086009E002F0BDF9E8698F
:1021C000401CE861092802DD0A20AC61E861E86A88
:1021D000002801D0FFF72AFF01F0BEF9696D07461C
:1021E000411AA86A82007D20C000101881420BD9D4
:1021F0002869002808D06F65A86B002801D1286ED7
:10220000686102F099F9AC63E96AA86B084319D1D7
:10221000686B0090052815D22869002812D0686DD7
:102220007D21381AC90088420CD9A96AFDF780FFC0
:1022300001460098401C814204D302F07DF9686B8E
:10224000401C6863A86D391A1D48814206D91D4893
:102250002C63066046608660C66002E0286B00283A
:1022600003D0686A002802D011E06C620FE0286A8F
:102270001549381A88420AD90C482E610621753052
:102280006C6204F0D8F80021052004F03BF901F05D
:1022900063F9E96D411A0A48814205D9A86CAE6418
:1022A000E86401F059F9E865FEBD000094000020E3
:1022B000340500208813000028650008680000200D
:1022C00040420F0004050020C0E1E40000B503F027
:1022D000B3FC00BDF0B57F208BB0C0050490FE4874
:1022E000807B002802D13F200006049000252C4668
:1022F000FA48AE008059FA4F4200FA495208B851E4
:102300008A4201DCBC510FE00122D207904204D87E
:102310007F22D2050023009203E0F34A0023F34911
:10232000009202F0DBF8B8516D1C032DE0DB02F0E7
:10233000BFFFEF480068FEF716F8E94D0746296829
:102340000498FDF77EFF3946FDF77BFFE94E3146E5
:10235000FDF777FF019069680498FDF772FF394631
:10236000FDF76FFF3146FDF76CFF0290E248006811
:10237000FDF7F9FF0746A9680498FDF762FF3946A3
:10238000FDF75FFF3146FDF75CFF0390D248DB4E5F
:10239000C0780C3D002803D0D9480068002832D00E
:1023A000D848019901600299416003990027816032
:1023B000D248BE008159D3488059FDF73AFF7F1CAF
:1023C000A851032FF4DB03F0ADFA002002F016FE53
:1023D000012002F013FE022002F010FEBE48CA499E
:1023E0000278CA4BCA480127CA4E002A7ED0BB4A8F
:1023F000D568C94A954202DD0268002A77D009688B
:102400000129FBD04FE10021B54803F085FEC34F01
:1024100003997868FDF715FF049001213868C90712
:1024200048400399FDF70DFF0590B86803990746EA
:10243000FDF707FF0690BA480990BA480890BA48D5
:102440000090A548B949027AC079002A7FD00028B7
:1024500014D003C94700490049087F08384607914E
:10246000FDF7F2FF00D9079F08993846FDF7E2FF14
:1024700016D838460899FDF721FF13E00120C00760
:10248000874237D8AA480168AA4801600020FFF7B0
:10249000FDFC0499FDF77CFE3168FDF7CAFE4DE0B6
:1024A0007F20C00508908E480099006847007F088B
:1024B0003846FDF7BFFF05D838460099FDF7FEFE08
:1024C000074601E07F27FF0508990998FDF7B9FE47
:1024D000009099483946FDF7B4FE0099FDF758FE83
:1024E00007468E4881680120C00701E0CFE0D6E0B2
:1024F000814202D931680198CFE78D4801688D4843
:10250000016031680198FDF794FE3946FDF799FEA8
:1025100000907F203946C005FDF78BFE074600205E
:10252000FFF7B4FC0499FDF733FE3168FDF781FE37
:102530003946FDF786FE0099FDF72AFE286071688E
:102540000298FDF776FE6860B1689BE0FFE700281F
:102550007ED07F200027C0050999FDF76AFE0A900A
:10256000724903C940004D006D08400806462946DF
:10257000FDF76AFF00D8354628460899FDF75AFF4F
:1025800004D828460899FDF799FE01E07F20C00590
:1025900007905348BD0040590099460076083046E0
:1025A000FDF748FF05D830460099FDF787FE06463F
:1025B00001E07F26F60507990998FDF742FE07908E
:1025C00031460A98FDF73DFE0799FDF7E1FD064605
:1025D000524881680120C007814206D947484159C5
:1025E00001A84059FDF725FE24E0514841595148C2
:1025F00041514248415901A84059FDF71AFE314660
:10260000FDF71FFE07907F203146C005FDF711FE44
:1026100006463846FFF73AFC04A94959FDF7B8FDCC
:1026200036494959FDF705FE3146FDF70AFE07997F
:10263000FDF7AEFD2A497F1C0C394851012F8FDD73
:102640002E4881680698FDF7F4FD25490C3900E015
:1026500001E08860B7E600273548BE00815935485B
:1026600081513846FFF712FC04A98959FDF790FD06
:1026700022498959FDF7DDFD7F1CA851012FEBDDB3
:102680001E4881680698FDF7D4FDA8609BE62B4A9A
:102690001C601268012A00D10C60F4615EE02849D8
:1026A0000978002902D01F60076002E025491C60FC
:1026B0000F60F7611968002950D0380052D02249C4
:1026C0002846FDF7BEFD2149FDF762FDB0611248C5
:1026D000854257DD1E483DE03404002004050020FB
:1026E000B80300200AD7233C000080BF0AD723BCD0
:1026F0007C02002035FA8E3C800200207C05002000
:1027000074010020000700207400002084000020D5
:102710008800002000000020CDCCCC3D68010020C6
:102720009A99993E00005C423333733FC405002000
:10273000B8050020D00100203333333FAC00002027
:10274000680200204800002077BE7F3F6F12833A66
:10275000800000200168002913D013E0D849B4613B
:102760000C6004E0D7498D4203DAD548B4610460B7
:1027700008E02846FDF75DFDD349FDF762FDB06135
:10278000CF480760D1480079002819D0D049B461FA
:10279000D04B0868984211D2CF4A90420EDA48686E
:1027A00098420BD2904209DA8868984206D2904249
:1027B00004DAC868002801DD904201DBC7480760E1
:1027C000C748C84900780968084303D1C648B169B9
:1027D000814223DA7068002807D000F0BDFE7168DE
:1027E000401AC249884200D974600025E8B200212D
:1027F00002F018FE6D1C032DF8DDBD4D00212A46A8
:10280000BC4801F0BAFABB482A460021001D01F07D
:10281000B4FAB461376034620BB0F0BD00203060B0
:1028200000F09AFE7060B4480068002802D0B348F7
:10283000C068B061B2480024006801283FD1B148A7
:10284000B24D0168B048814205DAFDF7F2FC294635
:10285000FDF7F7FC0446AE480168AE48814205DA50
:10286000FDF7E7FC2946FDF7ECFC04467F20C00598
:10287000844201DD044601E0002C07DDA649204624
:10288000FDF7DFFC7169FDF783FC03E09649706991
:10289000FDF7CFFC3F2109067061884201DD7161BF
:1028A00005E00121C907884201D900207061204656
:1028B0007169FDF76DFCB169FDF7BFFCB061974828
:1028C000974F00680890002804D10121B868C90713
:1028D0004840B860386800900146864808388069EA
:1028E0000646FDF7A6FC09907D682946FDF7A1FC88
:1028F000BC682146FDF74CFC079030460099FDF777
:1029000047FC06462946FDF794FC2146FDF791FC5D
:10291000059029460998FDF73BFC2146FDF789FC07
:10292000069030462946FDF733FC2146FDF730FC82
:1029300004900898002803D10120C0074440BC60DF
:102940000020401C0328FCDD0020674F044604AE35
:102950000090A50070590099FDF776FD01D27059DD
:10296000009070593946FDF765FD00D27759641C17
:10297000042CEEDB7F21C9050098FDF75AFC3F25AA
:102980002D06A84200DD28465A4C083CA168FDF7F8
:102990005BFD04D26349A068FDF7FAFB03E06249DE
:1029A000A068FDF746FC504FA060A84201DDA5607D
:1029B00003E05E49884200D9A1604E4801210838F1
:1029C0008068C907884200D959485A49FDF739FC3F
:1029D00000280DDD3946FDF7DBFB07460024A50086
:1029E00070593946FDF725FC641C7051042CF6DB48
:1029F0003348006801281ED100252C46A700F05955
:102A00002946FDF717FD00D2F559641C042CF5DBAF
:102A10004948854201D9054603E00120C0078542A7
:102A200009D90024A700F0592946FDF702FC641CCF
:102A3000F051042CF6DB2F48002108383D4F0D469D
:102A40007F1E0162AC0030590121C907884202D9BA
:102A50000020305104E07F21C905884200DD31515A
:102A600036483159FDF7EDFB3946FDF791FB174923
:102A700030510978002904D0EAB20146104602F02C
:102A8000D1FC30590121C907884202D900203051B8
:102A900004E07F21C905884200DD31513159154CD0
:102AA000083C206AFDF774FB6D1C2062032DC9DD14
:102AB0000121C943206AFDF73FFC2062ACE600001B
:102AC00080000020CDCC4C3D9932873F340400205B
:102AD00004050020A4707DBFA4707D3F4800002045
:102AE00062020020C40000206F12833A40420F00AF
:102AF000EC51383F080000207C010020D005002068
:102B00007800002030000020CDCC2C400000404058
:102B1000340000203333534017B7D1387C000020F5
:102B2000F40600200AD7A33B0AD7233CCDCCCCBD6A
:102B300017B7D1B8CDCCCC3DCDCC4CBE6666663F88
:102B4000F0B5024604464E4B83B0400069469842B9
:102B500009D273210906884202D20020C04300E056
:102B60000020009030E05000464B400898426CD264
:102B700045491046FDF765FBFDF7C2FC0746FDF72A
:102B8000F9FB8007800F009040493846FDF759FB5C
:102B900001903F493846FDF754FB06463D4938460B
:102BA000FDF74FFB05463C493846FDF74AFB2146F9
:102BB000FDF743FB2946FDF73CFB3146FDF739FBAA
:102BC0000199FDF736FB044625467F27009CFF054B
:102BD000002C3EDBE007314E294608461BD0FDF7AE
:102BE00030FB07462E49FDF72CFB2E49FDF725FB50
:102BF0003946FDF726FB2C49FDF7CAFA3946FDF7A1
:102C000020FB2946FDF71DFB2946FDF7C1FAA10768
:102C100018D503B0F0BDFDF714FB05462349FDF7B9
:102C200010FB2349FDF7B4FA2946FDF70AFB2149B9
:102C3000FDF7AEFA2946FDF704FB3946FDF7A8FA81
:102C4000A107E6D5704003B0F0BD1046FEF75AFF6D
:102C5000B9E7FF2168000906884202D2384603B06E
:102C6000F0BD884206D10120FFF71CF8FEF73CFFBB
:102C700003B0F0BD2846FEF732FF03B0F0BD000000
:102C8000B61F927E490E494683F9223F1A61342CC1
:102C90000020A23300A0FD390000C93F00000080E1
:102CA000336D4C39DA82083CA0AA2ABEB93AB2BACE
:102CB000CA9F2A3DDDFFFFBEF3B5074681B0102055
:102CC00001F0D6FB041E1BD0002020710298607119
:102CD000E4600125A46026467F1C0EE0102001F070
:102CE000C7FB00280CD0057102994171C660846051
:102CF000B0606D1C0646EDB2E060BD42EED32046EA
:102D0000FEBD0000F8B56C4F3868A5286FD10021D2
:102D100008468200BA58401C51180E28F9DBC8B288
:102D2000B96B8842F2D16448103002F057F9634E13
:102D300030606148183002F051F970605E48283008
:102D400002F04CF9B060388C796A8007800D401829
:102D5000FDF7FEFA5A49FDF774FA0146F06059484A
:102D60000025027801245848002A22D0574A1278B8
:102D7000002A04D1564A914201DD047000E005703A
:102D800054490978002909D0012909D002290AD01B
:102D90000329C4700BD00572C47143E0C57000E014
:102DA000C470057201E0C4700472C5713AE0047227
:102DB000F2E7494909780029397B1BD00906C90F78
:102DC000C170B968CA06D20FC2718A06D20F0272E8
:102DD0000A07D20F02707A68FA2A09D000224270DC
:102DE0008A07D20FC9078270C90F81711AE060E0AB
:102DF0000122F4E70906C90F8171B968CA06D20F2A
:102E0000C2718A06D20F02720A07D20F02707A6864
:102E1000FA2A15D0002242708A07D20FC9078270A1
:102E2000C90FC1702D49074609788171C078002803
:102E300026D0387A0028F87907D0002802D006E09A
:102E40000122E8E72649306803E000280AD0254936
:102E5000306802F017FB30602249706802F012FB04
:102E6000706004E01E49306802F00CFB30601C49C1
:102E7000B06802F007FBB06000201B4A1B4B0CE05F
:102E80001849306802F0FEFA30601649706802F0A6
:102E9000F9FA70601649B068EBE715541E5C395CAE
:102EA0008E4200D014541954401C0E28F5DB01202A
:102EB000F8BD0020F8BD0000340500200405002006
:102EC000F7FF7F3A680200203404002062020020ED
:102ED0000AD7233C690200206B0200206A0200200E
:102EE000CDCC0C3FCDCC4C3F240500201405002058
:102EF0009A99193F08B5C100081A0090411E009127
:102F000001D30846FAE708BD06460024E0B20021D6
:102F100002F088FA641C032CF8DD0B4DAF0000248E
:102F20000CE0FF2000F00DFF2846FFF7E3FFFF2035
:102F300000F0FEFE2846FFF7DDFF641CB442F0DB24
:102F40003846FFF7D7FFEAE7400D030010B5034905
:102F5000FDF71EF900F004F810BD0000DB0FC93FBB
:102F600070B50446134E144D03E03146FDF710F9D9
:102F70000446AC42F9D8114DAC4204DD3146FDF7B0
:102F800058F90446F8E70120C0070D490D4D844269
:102F9000204605D9FDF755F92946FDF7F9F804E073
:102FA000FDF74FF92946FDF748F92146FDF749F9A4
:102FB00070BD0000DB0FC940DB0F49C0DB0F49408B
:102FC0007B81CF3E83F9A23F10B5FDF747FE012478
:102FD000E4062046FDF7E4FD0E48FDF7E1FD042878
:102FE00017D0FDF70DFE00212046FDF711FE002150
:102FF000A01CFDF70DFE0021201DFDF709FE00219C
:10300000A01DFDF705FE00210348FDF701FEFDF7B9
:10301000F7FD10BD007C000808000008FEB5002781
:103020003D460024681CFDF793F901900E49A80065
:103030000E58601CFDF78CF90090A10071580198A2
:10304000FDF7FFF80099FDF7FCF80849FDF7F9F8DE
:103050003946FDF79DF8641C0746032CE9DB6D1C1F
:10306000032DDEDBFEBD0000500200208D976E3F79
:1030700010B5FFF7D3FF0149086010BD8C00002098
:10308000F8B50020012400F023FA724DA8427DD14A
:10309000FF2000F01DFAA84278D12046022500F05A
:1030A0001FFA6D4948600968FDF7C4F911D100267F
:1030B0000024B70028466D1C00F012FA6749A200F0
:1030C000C959641C8850032CF4DB761C032EEFDBFB
:1030D00000E00B2528466D1C00F002FA604C2060D1
:1030E00028466D1C00F0FCF9606028466D1C00F05D
:1030F000F7F9A06028466D1C00F0F2F9FDF753F9CE
:103100005849086028466D1C00F0EAF9FDF74BF9B4
:103110005549086028466D1C00F0DAF953490870DB
:10312000284600F0D5F9C0B251490024087027287C
:1031300000D90C70262000F0CBF9C0B24D4901280F
:10314000087000D90C70272000F0C2F9C0B24A49BB
:103150000128087000D90C70282000F0B9F9C0B21D
:1031600046490128087000D90C70292000F0B0F9F8
:10317000434908702A2000F0ABF9424908702B201F
:1031800000F0A6F9404908702C2000E060E000F053
:103190009FF93E4908702D2000F09AF93C490870CB
:1031A0002F2000F095F93B490870302000F090F98D
:1031B00039490870312000F08BF938490870342003
:1031C00000F086F9002203461146CC001846204143
:1031D000C0B27F2800D90122491C0429F5DB002A4E
:1031E00028D12F49012008602E490860322000F0C4
:1031F0006FF92D4C2071322000F06AF92B49000A3A
:103200000860332000F064F902460021CB0010462C
:1032100018416054491C0429F8DB342000F058F9A7
:10322000234A03460021CC00184620415054491C33
:103230000429F8DB362000F053F9FDF79BF81D490F
:103240000860372000F04CF9FDF794F81A4908603F
:10325000F8BD00000100AA128C00002050020020DE
:10326000700500207C020020800200205D0200200A
:103270005E0200206A0200206B020020680200202B
:10328000690200206D020020640200206502002017
:1032900066020020670200206C0200205C02002011
:1032A0009C000020A0000020F800002098000020D2
:1032B000D8000020780000207C000020F8B500F045
:1032C00013F900F0F3F8002001245F4903F0C4F87B
:1032D0005E4920460225096800F00AF9002600240C
:1032E000B7005B48A100C059415828466D1C00F04A
:1032F000FFF8641C032CF4DB761C032EEFDB554C2B
:1033000028466D1C216800F0F3F828466D1C6168A2
:1033100000F0EEF828466D1CA16800F0E9F84E4870
:103320000068FDF720F8014628466D1C00F0E0F823
:103330004A480068FDF717F8014628466D1C00F062
:10334000D7F8474928466D1C097803F085F84548A9
:103350000178284603F080F843480178262003F0DE
:103360007BF842480178272003F076F8404801783E
:10337000282003F071F83F480178292003F06CF809
:103380003D4801782A2003F067F83C4801782B205B
:1033900003F062F83A4801782C2003F05DF83948D0
:1033A00001782D2003F058F8374801782F2003F0DA
:1033B00053F836480178302003F04EF8344801784D
:1033C000312003F049F83348006800281FD0334803
:1033D000314C0068217900020143322003F03CF8AF
:1033E0002046FCF7BBFE0102E078090A0006014313
:1033F000332003F031F82A48FCF7B0FE01022848D8
:10340000090AC07800060143342003F025F8254856
:103410007F240068E405002801D0214600E0002157
:10342000362000F065F820480068002801D02146C9
:1034300000E00021372000F05BF80349FF2003F093
:103440000BF800F041F8F8BD0100AA128C00002032
:1034500050020020700500207C0200208002002025
:103460005D0200205E0200206A0200206B02002044
:1034700068020020690200206D0200206402002022
:103480006502002066020020670200206C02002016
:103490005C0200209C000020F80000209800002022
:1034A000D8000020780000207C00002010B50548DE
:1034B000FDF776FB042803D0FDF7A2FB012010BD29
:1034C000002010BD007C000810B5FDF799FB10BD71
:1034D000024980004018006870470000007C000826
:1034E00000B5FFF7F5FF00BD10B5FDF7B7FB10BD48
:1034F00010B502F0B1FF10BD70B5134C134A6068EF
:1035000000231349904206D90D7D012D03D10D6E84
:10351000AD680D660B750F4DA84206DD4E7D012E80
:1035200003D10E6EF6680E664B750123A84203DACE
:10353000904201D24B750B752068A84203DA904285
:1035400001D28B75CB7570BD040500209A9919BF07
:103550005C0200209A99193F00B502F049FF00BDB6
:103560001CB5232001214004FDF780FE012069469F
:10357000087100208871C8710320487102200090F2
:103580000920C006FDF78BFB1CBDF0B5012185B0FD
:103590004804FDF76BFE0120C0020090002468463D
:1035A00004710125C571032609274671FF06694686
:1035B0003846FDF774FB2803029068460473C57310
:1035C000467302A93846FDF76AFB02200090684660
:1035D000047169463846FDF762FB02213846FDF763
:1035E000AFFB05B0F0BD0000F0B591B0FFF7B4FF40
:1035F0000F9005460B900A9000208100574B0CAAB3
:103600005B58401C53500328F7DB8DE00A980A955D
:10361000281A099001D10120099006236A46432106
:10362000682000F097F9009801990002401800B254
:10363000FCF78EFE0790029803990002401800B232
:10364000FCF786FE0690049805990002401800B227
:10365000FCF77EFE424E0890307800F015FB2046C5
:103660004049FCF765FD4048814201D9012100E055
:1036700000213068C207D20F914201D0401C306057
:10368000374801780907090F00260160B4000CAF24
:1036900006A839590059FCF7D7FE04D238593349E6
:1036A000FCF776FD385106A839590059FCF7C2FEDF
:1036B00004D238592D49FCF7BCFD3851E0192C498A
:1036C00000F048FB38592B4940004008FCF760FDEA
:1036D000014606AF385940004008FCF7B5FE06D257
:1036E000FFF73AFF0B901E48012101600BE009989B
:1036F000FCF739FE204900F07DFB02461748395996
:10370000201800F03AFB761C032EBFDB7D24E4007A
:10371000FFF722FF401BA04203D20A20FFF7EAFB7B
:10372000F6E7FFF719FF05460B982C1A1348844259
:1037300005D20F981249281A884200D266E70B98E2
:10374000291A0E48814207D20020044A014683000C
:10375000401CD1500328FADB11B0F0BD94050020C5
:103760005001002024F40000127A0000CDCCCC3DA2
:10377000000048440000C8420024F44880841E0031
:10378000C0E1E40010B58AB002206946087101204A
:103790008871C8710320164C00902046FDF77FFA0F
:1037A000012200212046FDF7B2FA012211462046EF
:1037B000FDF7ADFA01214805FDF764FD1020FDF786
:1037C00015FE0C48029000200F2104910390AB21BC
:1037D000094C059007900691089002A92046FDF734
:1037E000CFFA01212046FDF7B0FA0AB010BD000063
:1037F000001400481808700000540040F8B517463F
:103800001E460446012200F03BF809208002009089
:103810006004010C0123F2B25B061248FDF7E8FADE
:10382000114D0020287018E0002408E0641C600B93
:1038300005D00E490868401C08600020F8BD04212E
:103840000848FDF796FA0028F0D00648FDF7CAFAB6
:1038500029788A00B850491C29702878B042E3DBE7
:103860000120F8BD0054004044030020280300203C
:1038700008B501236A46FFF7C1FF009808BD0000A4
:10388000F7B582B0174600241C4D1D4E02E0641CA3
:10389000600B24D10121C9033046FDF76AFA0128E3
:1038A000F5D00120400300900298FAB24004010CC8
:1038B00000233046FDF79CFA02E0641C600B0ED139
:1038C00002213046FDF755FA0028F6D00398C1B220
:1038D0003046FDF78AFA08E0641C600B05D02868C2
:1038E000401C2860002005B0F0BD01213046FDF7E6
:1038F00040FA0028F0D00120F5E70000280300205E
:103900000054004070B5154600240222FFF7B8FFAE
:10391000E9B20C4D2846FDF768FA07E0641C600B1D
:1039200004D009490868401C086070BD4021284641
:10393000FDF71FFA0028F1D001212846FDF70FFA04
:1039400070BD0000005400402803002010B5FFF7B0
:1039500019FF10BD10B5FFF751FF10BD10B5FFF7EF
:1039600087FF10BD10B5FFF7CDFF10BDF0B5A24C1D
:10397000A24D91B021682868FCF75BFCA04E074679
:10398000306061686868FCF754FC7060A168A868E2
:10399000FCF74FFCB0603846FDF74EFA30607068B7
:1039A000FDF78AFA7060B068FDF7C6FAB060954915
:1039B000684602F037FD9448002400680AAF03907F
:1039C0009248A50040590399FCF73BFC641C7851D0
:1039D000032CF5DB0B98FFF7B3F803900B9802F07C
:1039E00065F907900A98FFF7ABF80D9001250A9842
:1039F000ED07684002F05AF904460C98FFF7A0F86A
:103A000006900C98684002F051F9049003990698CA
:103A1000FCF717FC08900D990698FCF712FC074676
:103A200003990498FCF70DFC059006990798FCF79C
:103A300008FC0E9004990798FCF703FC09900D9878
:103A400004996840FCF7FDFB0F9021460E98FCF7A7
:103A5000F8FB0599FCF79CFB109021460998FCF7B0
:103A6000F0FB0899FCF7E9FB069007980D99684070
:103A7000FCF7E7FB079021460898FCF7E2FB099961
:103A8000FCF7DBFB054621460598FCF7DAFB0E99AF
:103A9000FCF77EFB049003990D98FCF7D2FB2946B6
:103AA000584D0890A8680590FCF7CBFB0990686812
:103AB00010990390FCF7C5FB39460D902F683846E6
:103AC000FCF7BFFB0D99FCF763FB0999FCF760FB62
:103AD000009004990598FCF7B4FB049006990398AC
:103AE000FCF7AFFB069038460F99FCF7AAFB069946
:103AF000FCF74EFB0499FCF74BFB019008990598E5
:103B0000FCF79FFB049007990398FCF79AFB03903E
:103B100021463846FCF795FB0399FCF739FB0499DD
:103B2000FCF736FB02906946284602F07BFC3448DD
:103B3000FEF7B2FA36497F220968D205002926D05D
:103B40003449354B4118994242D20146002410466F
:103B5000FCF7B4FB0390A700F159FCF772FB641C5F
:103B6000F051032C01DA0398F5E727483F210906B5
:103B7000006800F051F907460024A00031584019B0
:103B80003A4600F0FAF8641C032CF6DB20E001460C
:103B900000241046FCF792FB0390A700F159FCF7B4
:103BA00050FB641CF051032C01DA0398F5E716482A
:103BB0003F210906006800F02FF907460024A00005
:103BC000315840193A4600F0D8F8641C032CF6DB53
:103BD0001248017A002902D1C07900280AD0A968C8
:103BE0002868FEF7BBF90E4C2060A9686868FEF7EC
:103BF000B5F9606011B0F0BD7005002088050020A7
:103C0000AC05002068010020640000207C05002035
:103C100000000020CCCCCCC0323373003404002030
:103C2000C4050020F8B500260D4FFEF765F8002406
:103C3000A5000C4879594059FCF7FBFA01460A489F
:103C40000A4A281800F099F8641C032CF0DB7D2048
:103C5000C000FFF74FF9761C642EE6DBF8BD0000CC
:103C60007005002088050020680100209A99593FBE
:103C70000EB500226B461A805A8001911A819A7201
:103C80006946FDF71DFD0EBD70B50646FFF764FCE5
:103C9000194C21692061451A3046FCF764FB17492D
:103CA000FCF7CFFA06460121204689070C3000F0C8
:103CB00051F82846FCF757FB054630466168FCF78B
:103CC000B8FA2946FCF7BDFA0D49FCF7BAFAE168E3
:103CD000FCF75EFA0B49E060884205DDFF2000F04A
:103CE00030F87F20C00503E0FF2000F021F800201D
:103CF0006060002070BD0000180100208988883DA8
:103D00006F12833A48E1FA3E70B50D460446FFF75C
:103D100023FC2146FCF70CFA6C432009814203D9AD
:103D20000F2000F00EF870BD0F2000F001F870BDFC
:103D300010B5C00704D009200221C006FCF7FEFF21
:103D400010BD10B5C00704D009200221C006FCF741
:103D5000F7FF10BD70B504460120C0070D46454071
:103D60000E462068FCF770FB00D2266028462168CA
:103D7000FCF76AFB00D2256070BD70B505460C46A5
:103D80007F2016461146C005FCF753FA2146FCF782
:103D900058FA044631462868FCF753FA2146FCF7E6
:103DA000F7F9286070BD0000F3B5104E104F8C007D
:103DB00083B031597869FCF744FA019030460C38E9
:103DC000055938692946FCF73CFA0090B96903980F
:103DD000FCF737FA0099FCF7DBF90199FCF729FAAF
:103DE000314635510C39085105B0F0BD300700207F
:103DF000E801002010B5FCF761FA7F24E4052146B4
:103E0000FCF71BFAA04201DD204610BD0121C907C5
:103E10008842FAD9002010BD10B5FCF712FA7F24B1
:103E2000E4052146FCF709FAA04201DD204610BD59
:103E30000121C9078842FAD9002010BDF8B5164AF9
:103E400009018C1805462768A1686068FCF7A0F98D
:103E50000090E168FCF79CF901467F20C005FCF763
:103E60002DFA0099FCF7EDF9064639462846FCF78D
:103E7000E0F93146FCF7E5F93946FCF789F90546E2
:103E80007F203146C005FCF7D4F90099FCF7D9F939
:103E9000256060602846F8BDE0050020F8B5164AA8
:103EA00009018C1805462768A1686068FCF770F95D
:103EB0000090E168FCF76CF901467F20C005FCF733
:103EC000FDF90099FCF7BDF9064639462846FCF78E
:103ED000B0F93146FCF7B5F93946FCF759F9054612
:103EE0007F203146C005FCF7A4F90099FCF7A9F939
:103EF000256060602846F8BD100600201CB57D20B6
:103F0000C000FEF7F7FFFB49886901273843886145
:103F1000F9490868102210430860FFF736FBF7489C
:103F2000FEF7E8FF0925ED06F9022846FCF7FFFE3B
:103F3000002805D039032846FCF7F9FE002815D1E2
:103F40007D26F6003046FEF7D5FF02212846FCF715
:103F5000EEFE00280AD1FFF737F83046FEF7CAFF19
:103F6000E7484168006880F308888847FEF7AEF9A3
:103F7000E44800250560FFF7A1F9FFF7F1FAFF20FB
:103F8000FFF7DFFE02F03CF802F01CFA00F0E4FA62
:103F90004B208001FDF7EAFBD848FEF7ABFFFFF7A7
:103FA000D5FC01F0C3F90021084601F03BFA0021DD
:103FB000012001F037FA0021032001F033FA00213B
:103FC000022001F02FFA01F045FF01F031FF002837
:103FD00058D0FDF7CDFECC488773FFF749F8FFF7BF
:103FE0004FF801F03FFDCA48C8490026C163C64CDE
:103FF000AA200C3C2070552060700720A070012082
:10400000E070C4480521007820712046FCF7D8FCF8
:104010006071A571E57125726572A572E572FDF793
:1040200093FBBD48761C8642E1DBB94E002400209C
:10403000FDF710FF7169FCF704F907460120FDF751
:1040400009FF0146B248B54A1430FFF796FEB04862
:10405000B24A39460C30FFF790FEAF48641C8442E8
:10406000E5DBAF4FF068062401902046FCF770F9BD
:10407000014600900198FCF721F9B84204DD009850
:10408000306204E0042030E0641E002CEDDCFCF71C
:10409000BFFEFFF7A9FA01F0BDFAFFF7C3FDA14883
:1040A0000068002801D007201FE0FFF755FA706470
:1040B000FFF752FA964C0646606C301AFCF753F93B
:1040C0002064002802DC7F20C00520649649FCF7AC
:1040D000B8F896492064884201DD062005E0914841
:1040E00066640068142802DD0820FEF70DFF01F069
:1040F000EFFEFEF7EFF8FFF739FC0020FDF7AAFE10
:10410000834C6169FCF79DF807460120FDF7A2FE8C
:1041100001462046814A1430FFF72FFE84487F4A2B
:10412000016820461830FFF728FE8249206AFCF714
:1041300088F80090804A6846E168FFF71EFE204636
:10414000764A39460C30FFF718FE0121C943009822
:10415000FCF7F2F807467949E068FCF772F839464F
:10416000FCF767F8A0640746A469754884425CDDE3
:104170006748006B0190FCF7EBF87149FCF761F8B8
:104180002146FCF75EF83946FCF702F8019907462C
:104190008C005D49703108515D48806B002808D063
:1041A00000205B4B30398200401C8F500C28FADB1A
:1041B0009D635548634910300059FCF742F801905F
:1041C0005148403001593846FCF733F80199FBF764
:1041D000DFFF4D4940310F51303908510146FCF79E
:1041E00030F8494F0146A037E019574AFFF7C5FD9F
:1041F00047484749006B401C08630C2815DB0D63DA
:104200003868002401904048A700A030C0590199A7
:10421000FCF710F906D23C48A030C05901903C4848
:10422000611C4163641C0C2CEDDB394CE0690028F7
:1042300002D04348E06400E0E5644449E06CFBF7E9
:10424000A7FF0746606BFCF783F83D49FBF7F9FFD2
:10425000A169FBF7F6FFA16CFBF79AFF3946FCF763
:10426000E9F803D33A49E068884202DA0120E061C4
:1042700000E0E561264C606BFCF76AF83049FBF71B
:10428000E0FFA169FBF7DDFFA16CFBF781FF206177
:10429000E069002801D0082108E02E4800680028C5
:1042A00006D02D480068002804D00F212B481EE0BE
:1042B0000C211BE014488079002808D00027144CFA
:1042C000606A00284CD0E06A002802D004E0012790
:1042D000F5E7FFF741F9E062FFF73EF9E16A411ABD
:1042E0001E48814201D96562E56208210348FFF753
:1042F0000BFD63E00010024000000140A0860100B9
:1043000000C4FF1F9C00002034040020CD200008C2
:10431000240000205E02002088130000492E7F3F09
:10432000CDCC6C4028030020BD3786350AD7A33C8E
:10433000200000206666864029EA7F3F0000A03FFB
:10434000CDCCCC3D42F27C3F67B17F3F333353400D
:10435000CDCC2C40A4000020C400002020A10700E8
:104360003B48806A002820D0FFF7F6F8044638481A
:10437000C06A00280AD13648002FC46203D0FF204B
:10438000FFF7D6FC02E0FF20FFF7DBFC3048C16AF4
:10439000621A30498A4203D9816AC562491E816224
:1043A000C06A2D49201A884208D9002F03D0FF2067
:1043B000FFF7C7FC02E0FF20FFF7BAFC01F018FA94
:1043C00001F0C6F8224CE06B804760682349401C2E
:1043D0006060E068FBF735FFFBF7CCFFA06000F002
:1043E000EDF81F480078002803D01E480078002808
:1043F0000AD01D48007A20707D24E400FFF7ACF855
:10440000801BA042FAD353E617482178007A8842ED
:10441000F2D0164920700878401CC0B208700F28EE
:1044200001D908200870104CAA200C3C207055209F
:1044300060700720A0700120E070087820710521CD
:104440002046FCF7BDFA6071A571FDF77DF9D3E751
:104450002400002020A10700E09304000000C842CF
:104460006802002062020020340400205E02002066
:10447000F0B50B30C108C900144F0026144A0FE0F4
:1044800003688B420BD38B4205D95C1A43184568ED
:1044900030C3083B00E04368136002C004E0021D23
:1044A00010680028ECD13046002803D13868002875
:1044B00001D00020F0BD064A06481060064A121AD4
:1044C000D208D20044C001203860D7E7640300203E
:1044D00060030020C4070020C00B0020FFB581B09E
:1044E00007460E4610460A9DFBF7A3FE04462846E3
:1044F0000499FBF79EFE054631463846FBF799FEC8
:104500002946FBF79EFE2146FBF7D8FE0499FBF7F0
:104510003FFE05B0F0BD000010B506490868002850
:1045200007D000200860091D08710920C006FCF7AB
:10453000B6FB10BD2C03002010B50649087D401CB9
:104540008007800F48614431095C252001F0DAFFC3
:1045500010BD00009400002010B500210720FEF7D8
:10456000ABFB154C0121A062E0620920FEF7A4FB21
:104570002063606302210420FEF79EFBA063E063DA
:1045800003210020FEF798FB2064606404210320CF
:10459000FEF792FBA064E06405210420FEF78CFB8B
:1045A0002065606506210320FEF786FBA065E065B7
:1045B000A06A206610BD00005C020020F8B5F74D2F
:1045C000F749A86901260024884202DA401CA86144
:1045D00003E0E879002801D1EE71AC71A879F14FC0
:1045E0000300FDF744FA0805F2F0EFEEEDECEB7195
:1045F000ED482B7BC16882684068002B8446EA48FE
:10460000006862D0E94B9A4236D9E94A914233DADE
:10461000BC4531DDE74988422ED290422CDAE64B88
:10462000AE71002081005A58296B401C0A608968CD
:10463000C0B229630328F5D3E04B002081005A580B
:10464000296B401C0A608968C0B229630328F5D32E
:10465000DB4B002081005A58296B401C0A60896896
:10466000C0B229630328F5D3686B2863E86BA8639D
:10467000A87828716878E870D24E3068C82823D3AB
:10468000AA790F211201D0481143D04A0170117844
:104690004170CF49847009880B0AC3700171697C2D
:1046A0004171D1788171C471047244728472C47290
:1046B0000021435CC27A491CD218C9B2C2720B29CC
:1046C000F7D3FDF741F83460F8BDC04B1B78002BE1
:1046D00048D1B64B9A4245D9B54B994242DDBD4AC5
:1046E00091423FDABC453DDDB24988423AD2984218
:1046F00038DAB14BAE71002081005A58296B401C4A
:104700000A608968C0B229630328F5D3AB4B002047
:1047100081005A58296B401C0A608968C0B229631D
:104720000328F5D3A64B002081005A58296B401C62
:104730000A608968C0B229630328F5D3974B00202B
:104740001C331A5CA96B401C0A708968C0B2A9634B
:104750000428F6D3686B2863E86BA863A8782871EF
:104760006878E870974E3068C828ADD3AA790F21D1
:10477000954812011143017094490A784270944A95
:1047800084701288130AC37002716A7C42710A7ABB
:10479000CB7952009B00C9781A430A438271C471D5
:1047A000047244728472C4720021435CC27A491C50
:1047B000D218C9B2C2720B29F7D382E797E3EFE2AE
:1047C0004AE2EAE18BE173E0FFE7FEF795FE764807
:1047D0000068B84248DDA87D012845D1286E0079DF
:1047E0000300FDF744F90805090E12161A1E3B4096
:1047F000686B2866022002E0E86B28660320A87137
:1048000031E0686C28660420F9E7E86C286605202A
:10481000F5E7686D28660620F1E7E86D2866072051
:10482000EDE7AC71E86A28662C756C75FEF746FDFD
:10483000FEF726FC684E00210C230A4600205A434E
:1048400092198300401CD4500328FADB491C032929
:10485000F2DBFEF781FE6149086004E0AC71E86AB2
:1048600028662C756C75AC75564E3068C82800D219
:104870002AE7AA790F205449120110430870286EC4
:1048800000794870A87C8870E87CC8700C714C7105
:104890008C71CC710C724C728C72CC7200200B5CDF
:1048A000CA7A401CD218C0B2CA720B28F7D308E7E4
:1048B000FEF722FE3C480068B84233DDA87D01289F
:1048C00030D12F6E3879092826D245493868FBF750
:1048D0005FFC3860686B2863374A0020296B8600CC
:1048E0000B6893518968401C29630328F6DB334A1F
:1048F000002086000B6893518968401C29630328B7
:10490000F7DB2F4A002086000B6893518968401C12
:1049100029630328F7DB04E0AE71686B2863E86A5B
:104920002866AC75204801682048814230D9E87D6E
:1049300001282DD12E6E3079092828D228493068D7
:10494000FBF777FC3060002800DC3460686B28637C
:10495000194A0020296B86000B6893518968401C16
:1049600029630328F6DB154A002086000B68935163
:104970008968401C29630328F7DB114A0020860060
:104980000B6893518968401C29630328F7DBEC7599
:104990000C4F3868C82825D296E600005C0200203B
:1049A0004A0600009A99193F040500209A9919BFF8
:1049B0009A99993E9A9999BE200200202C020020D3
:1049C00038020020280000202804002034040020A1
:1049D0002C0000203333333F940600206800002071
:1049E0000AD7233CA9790F200901FA4E08433070F9
:1049F000286EF94D00797070F8492868FBF721FCA2
:104A0000FBF704FD00F0E0FFFBF7E2FCB070F349B8
:104A10006868FBF716FCFBF7F9FC00F0D5FFFBF725
:104A2000D7FCF070ED49A868FBF70BFCFBF7EEFC38
:104A300000F0CAFFFBF7CCFCE94D3071E74928686C
:104A4000FBF7FFFBFBF7E2FC00F0BEFFFBF7C0FC4F
:104A50007071E2496868FBF7F4FBFBF7D7FC00F0E4
:104A6000B3FFFBF7B5FCB071DC49A868FBF7E9FBC5
:104A7000FBF7CCFC00F0A8FFFBF7AAFCD94DF071C6
:104A8000D6492868FBF7DDFBFBF7C0FC00F09CFF74
:104A9000FBF79EFC3072D1496868FBF7D2FBFBF74D
:104AA000B5FC00F091FFFBF793FC7072CB49A8684E
:104AB000FBF7C7FBFBF7AAFC00F086FFFBF788FCBF
:104AC000B072F4720020325CF17A401C8918C0B2D6
:104AD000F1720B28F7D3FCF737FE3C60F8BDFEF708
:104AE0000BFDC1480068B84212DDA87D01280FD136
:104AF000286E0079002830D0012836D002283CD01A
:104B0000032842D0AE71E86BA863E86A2866AC75EA
:104B1000B64E3068C828E1D3AA790F20AD491201FA
:104B200010430870286E00794870287B8870687B75
:104B3000C870A87B0871E87B48718C71CC710C72CD
:104B40004C728C72CC7200200B5CCA7A401CD2185A
:104B5000C0B2CA720B28F7D3B3E5287B002802D075
:104B600000202873D3E70120FBE7687B401CC0B21C
:104B700068730428CBD96C73C9E7A87B002802D0DE
:104B80000020A873C3E70120FBE7E87B002802D0E0
:104B90000020E873BBE70120FBE7FEF7ADFC924B7A
:104BA0001868B8420ADDA97D012907D19049C97862
:104BB000002902D0AE71E96A2966AC758B4F39685D
:104BC000C8298BD3AA790F21824E1201114331706B
:104BD000296E1D46097971708049FBF732FBFBF79E
:104BE00015FC00F0F1FEFBF7F3FBB0707B49686841
:104BF000FBF727FBFBF70AFC00F0E6FEFBF7E8FB00
:104C0000F0707649A868FBF71CFBFBF7FFFB00F090
:104C1000DBFEFBF7DDFB30717049E868FBF711FB49
:104C2000FBF7F4FB00F0D0FEFBF7D2FB707170488D
:104C30000178B171C178F171017A3172C079707205
:104C4000B472F4720020325CF17A401C8918C0B250
:104C5000F1720B28F7D33EE7FEF74EFC624800687E
:104C6000B84261DDA87D01285ED1286E0079002858
:104C700006D001280DD0022815D0032853D14FE0CB
:104C80002879401CC0B22871272800D92C716E7178
:104C900049E0E878401CC0B2E870012800D9EC7007
:104CA000022068713FE06879022816D1E9786970BE
:104CB000484F6C71AA203870552078700520B87064
:104CC000FE70397101463846FBF77AFE7871BC7187
:104CD000FC713C727C72BC72FC726879012816D13E
:104CE0002879A8703B4F6C71AA21397055217970D1
:104CF0000721B970FE70387105213846FBF760FE58
:104D00007871BC71FC713C727C72BC72FC72FEF7F3
:104D1000D5FAFEF721FC37490860FCF715FD02E0E3
:104D2000AE71E86A2866AC752F4801683248814246
:104D300010D9E87D01280DD1286E0079002808D10E
:104D40002879002801D128202871C0B2401E28717E
:104D50006E71EC75254E3068C82800D2BEE6AA797F
:104D60000F201C49120110430870286E007948700A
:104D7000A87888706878C8700C7128794871E878CC
:104D80008871CC710C724C728C72CC7200200B5CEE
:104D9000CA7A401CD218C0B2CA720B28F7D390E46A
:104DA000FEF7AAFB10480068B84246DDA97D01293C
:104DB00043D1296E09790B00FCF759FE0504202820
:104DC00030393E00297A491CC9B22972202933D9C9
:104DD0002C7231E028040020200200200000C8428C
:104DE0002C020020380200200405002028000020AA
:104DF00034040020680000209A9919BF697A491C80
:104E0000C9B26972202917D96C7215E0A97A491CB8
:104E1000C9B2A97220290FD9AC720DE0297C491CB6
:104E2000C9B22974282907D91C21297404E0AE715C
:104E3000696D2965E96A2966AC75644988422FD98C
:104E4000E87D01282CD1286E20210079002806D089
:104E500001280CD0022812D0032820D117E0287A8C
:104E6000002802D0401E287219E0297217E0687AE3
:104E7000002802D0401E687211E069720FE0A87A23
:104E8000002802D0401EA87209E0A97207E0287C21
:104E9000401EC0B228741C2801D228202874EC754A
:104EA0004B4E3068C82800D218E6AA790F2049492D
:104EB000120110430870286E00794870287A8870B3
:104EC000687AC870A87A08714C71E87A8871287C71
:104ED000C8710C724C728C72CC7200200B5CCA7A56
:104EE000401CD218C0B2CA720B28F7D365E4FEF793
:104EF00003FB39480168B94223DDA87D012820D190
:104F0000286E0079002806D0012808D002280AD08F
:104F1000032815D10FE0286A0A30286210E0686A79
:104F20000A3068620CE02878002802D0002028703F
:104F300006E00120FBE7AE71E86DA865E86A286627
:104F4000AC752248814219D9E87D012816D1286E16
:104F50000079002804D0012806D002280DD107E0EE
:104F6000286A0A38286208E0686A0A38686204E039
:104F70002878002828D000202870EC75144E30685E
:104F8000C82891D3AA790F20124912011043087042
:104F9000286E00794870288C020A8A70C870A88C24
:104FA000020A0A71487128788871CC710C724C72AF
:104FB0008C72CC7200200B5CCA7A401CD218C0B232
:104FC000CA720B28F7D372E40120D5E79A9919BF6A
:104FD00028000020280400200405002010B54168A6
:104FE00000788007800DFF38FF3802380818FBF77B
:104FF000AFF90821C943FBF79FF910BDF0B506468C
:105000009D4A9F48D3789D4900689E4FB4008FB059
:10501000002B02D0127A002A11D0002803D0385970
:10502000FBF70FF93851022E19DA96491831085951
:10503000C207401CD20F0851002A07D00FE00028F9
:10504000EDD1914800680028E9D0ECE78D48314661
:105050004830005901F040F88A490C3108518B481A
:105060000025015987483C300059FBF7E3F904D18A
:1050700087480059002800DD012584480121005996
:10508000C90748407F493C310959FBF7D3F906D19C
:105090007F4801590120C007814200D90125022E15
:1050A0000BDA78480C3001593C300059FBF7C1F855
:1050B000400078494008884228DC002D26D17148FC
:1050C0000221543000590090FBF736F96D496031E8
:1050D0000959FBF75DF86E490D592946FBF758F859
:1050E0006D49FBF7AEF86D490959FBF7AAF86C4911
:1050F0000968FBF7A6F83959FBF74AF861493851B6
:1051000060310098085108460C3805515F480C3052
:1051100001595C482018FEF71DFE604818300759F9
:105120005B4839460059FBF78CF85C490C39095942
:105130000091FBF786F8534D7F2101903C35C9055E
:105140003846FBF776F80099FBF77BF85549095983
:105150000391FBF776F80199FBF71AF849490959C9
:10516000FBF716F828514D480C30005902900028E2
:1051700001DC285972E04C480AA9027807A8002AE5
:1051800006D0464A243A12590251444A183A05E0D8
:105190003C4A603A125902513A4A543A12590A5159
:1051A00000597F22D2050090904208590190014693
:1051B00004AF104608DAFBF73CF80D903B48019924
:1051C0000059400040080BE0FBF733F80D900099C0
:1051D0000198FBF773F80146344800594000400835
:1051E000FBF72FF80D99FAF7D3FF385125482430F3
:1051F00001590398FBF71DF80299FBF722F827499C
:105200004439C9690D91FBF71CF80E901D483030E8
:1052100001591830025901921046FBF70AF8029919
:10522000FBF70FF80099FBF70CF83959FBF709F871
:105230000D99FBF706F80E99FAF7FBFF1149019A51
:1052400030310A510F4A0399243211513146FEF789
:10525000ABFD01462859FAF79BFF28510F49443905
:10526000C968FAF7EEFF2851084801596019FEF79E
:1052700071FD28590FB0F0BD3404002048E17A3F99
:1052800000000020B80600208000002038650008DB
:10529000AC030020CDCCCC3D7EAA2A3E2C020020BF
:1052A000640000207C0500205C020020B803002080
:1052B000F8B5144801681448FBF700F8134CE06196
:1052C0001348016813480068FAF7F8FF7F25124E6B
:1052D000ED053346114A12490095FFF7FFF8E060EB
:1052E000B04201DDE66002E0A84200DAE5600D4868
:1052F000C078002804D00C49E068FAF7A2FFE0600B
:10530000F8BD00006400002017B7513BE801002001
:105310004400002030000020713DAA3F66667640C0
:1053200000002040340400206666663FFEB502257A
:1053300069460D710320487100248C71CC710121E4
:105340000846FBF79FFF334F6E0739463046FEF79E
:105350008FFC01210220FBF795FF39462E4F38467E
:10536000FEF786FC2D486021018001214180848167
:1053700009020182846080200924E40600906946C5
:105380002046FBF78CFC012207212046FBF7BFFCDF
:1053900022493846FCF704F9A803009069462046E4
:1053A000FBF77DFC02220F212046FBF7B0FC1B49D6
:1053B0003046FCF7B1F81A4C694620460095FBF7D9
:1053C0006EFC012211462046FBF7A1FC134938462A
:1053D000FCF738F90820009069462046FBF75FFC8F
:1053E000022203212046FBF792FC0C493046FCF7D1
:1053F000D7F801213046FCF770F801213046FCF760
:1054000076F801213846FCF768F801213846FCF7A8
:105410006EF8FEBDCF070000000400403C070020EE
:105420000004004810B50A46044613491046FAF72E
:1054300008FFFAF79FFF002801DA002003E00F4978
:10544000884200DD0846002C0AD0012C0CD0012136
:105450008907022C0CD0032C01D180B2886310BDC7
:10546000074980B2086010BD054980B24039F5E7B0
:1054700080B2486310BD000000E0F944CF0700008F
:1054800040040040F8B506467F20C0050C46814226
:1054900001DD044603E010498C4200D90C46214648
:1054A0000746FAF7C6FE3146FAF7CBFE0546314607
:1054B0000846FAF7C6FE3146FAF7C3FE2146FAF768
:1054C000C0FE2946FAF764FE009039466846FEF7AA
:1054D00041FC0098F8BD0000000080BFF0B51B4AF9
:1054E0000024194F13462146303B880038580502E6
:1054F0002D0FAD005559A6009D5105032D0FAD0090
:105500005559641CA6009D5105042D0FAD00555939
:10551000641CA6009D5105052D0FAD005559641C56
:10552000A6009D5105062D0FAD005559641CA6001F
:105530009D510007800E1058641CA5005851491C4D
:10554000641C0229D1DBF0BD480100208007002047
:1055500010B5084C6068012806DD6068032804D097
:105560000120606000F008F810BDFFF7B7FF0220CF
:10557000606010BD4803002070B5204D4F20E862E8
:10558000172068632F20E8631E4E1D4830621E49B5
:1055900071621B481B4C1030403C60621B4AA26287
:1055A000A063E163E0690F2109028843E0611848C4
:1055B000FBF758FA30206063F061206200202882F7
:1055C000104801212438FBF759FA0E480121183000
:1055D000FBF754FA0B4801211038FBF74FFA07216B
:1055E000012209022846FBF78EFF4F212846FCF7CF
:1055F00065F801212846FBF770FF70BD002C0140C3
:1056000018040048400002404803002050070020D2
:1056100010010100F0B597B0012608A90E71002411
:105620008C71CC71032048716A480896FBF737FBF0
:1056300005A8FCF77FF86846FCF736F80121C80298
:10564000FBF72CFE4F20069069468C828C83CC821F
:1056500005A96148FCF734F800215F48FBF734FFE7
:1056600069460C804C80172002905B48FBF754FF82
:1056700000215948FBF78EFF69460C804C802F2093
:1056800002905548FBF78CFF00215348FBF7D0FFF1
:105690000BA8FBF777FA01210846FBF7E7FD4F4817
:1056A000FBF7F8F94B48102518300B904C480C903C
:1056B00030200E902801119080000D950F941094C9
:1056C000C70012A991C145480BA928301594FBF7D2
:1056D00039FA42481438FBF7DDF93E480D95283079
:1056E0000B9040480C9030200E9080201594109024
:1056F0003A480F941194129413940BA914971438E8
:10570000FBF720FA3548FBF7C5F937480B903448CA
:105710000C90280111900D950F940E951094800017
:1057200012A991C10BA92D481594FBF70BFA07217B
:10573000012209022848FBF7E6FE0A2008A90872A0
:105740004C728E720AA8FBF73FFD0122022123480A
:10575000FBF7F0F9254900208200401C8C500228FC
:10576000FADB1F494868002801D1032048601C4823
:1057700002881C4C00213034C80701D0002300E00F
:1057800013468800235023581B02235025588B07AB
:1057900001D5002300E013461D43255023581B026A
:1057A000235025584B0701D5002300E013461D4325
:1057B000255023581B02235025580B0701D50023E1
:1057C00000E013461D432550491C1029D4DB17B0B7
:1057D000F0BD000000040048002C014030000240F1
:1057E00048030020500700202800004848010020FE
:1057F00010B516490868401C0860102825DD0020F7
:1058000008601348134A0068002804D008230021C8
:10581000FF2000040AE010480068002809D00F4863
:105820000068002807D0FF210823080200F05CF878
:1058300008E0FF2004E00A488079002800D00948E9
:1058400000F012F8002000F063F810BD2C010020D9
:105850004000002020A10700A4000020C400002078
:1058600034040020FF00FF0070B501040514090E88
:10587000C4B20846FAF76CFD194E01463246194883
:10588000FEF77BFA2846FAF763FD014615483246D3
:10589000001DFEF772FA2046FAF75AFD014611483C
:1058A00032460830FEF769FA0E4D103D6869FAF786
:1058B00061FD0006040A2869FAF75CFD0006000C89
:1058C0000443A869FAF756FDC0B2044300202946F4
:1058D0001C318200401C8C500228FADB70BD000095
:1058E000002FA73C3C010020F8B51D4614460E468B
:1058F0000746FDF731FE2146FAF71AFC6C432009F2
:10590000814201D9384600E03046FFF7ADFFF8BDCF
:1059100003484168002901D103214160704700001C
:1059200048030020FEB5254D254C2F68A668394652
:105930003046FAF786FC234909680091FAF781FCA2
:105940006168FAF77AFC39460190FAF77AFC009917
:10595000FAF777FC3146FAF71BFC074668680290B5
:10596000266801463046FAF76CFC0099FAF769FCA4
:105970003946FAF762FCA0600299FAF762FC0099D6
:10598000FAF75FFC3146FAF703FCAD680646294694
:105990000198FAF756FC0099FAF753FC3146FAF7EA
:1059A0004CFC29462060FAF74CFC0099FAF749FCB8
:1059B0000199FAF7EDFB6060FEBD00007C05002058
:1059C000B806002064000020F0B513B40646019923
:1059D000FAF7C6FE04460D4602460B4630460199CC
:1059E000FAF7B0FE064601981B4B0F4600280CDA6A
:1059F00000223046FAF7F2FE0CD90022174B30464F
:105A00003946FAF7FFFE1DD214E000223046FAF7BD
:105A1000E5FE08D20022124B20462946FAF792FEF4
:105A200004460D460EE000220C4B30463946FAF78C
:105A3000E9FE07D800220A4B20462946FAF7DEFD88
:105A400004460D46019A69004908D20FD207204644
:105A5000114303B0F0BD00000000E0BF0000E03FD4
:105A60000000F03F7CB54348012585730021C173D8
:105A70000221414800F0DFFC3F4807217B3000F065
:105A8000DAFC3D480621693000F0D5FC3A48042193
:105A90003C3000F0D0FC6420FDF72CFA364806219B
:105AA0006F3000F0C8FC0021012000F02BFD012127
:105AB000022000F027FD3921062000F023FD0F21F0
:105AC000112000F01FFD0021042000F01BFD032128
:105AD000084600F017FDE22000F0CEFC0021052072
